{
  "_format": "hh-sol-artifact-1",
  "contractName": "FreelanceEscrow",
  "sourceName": "contracts/FreelanceEscrow.sol",
  "abi": [
    {
      "inputs": [],
      "stateMutability": "nonpayable",
      "type": "constructor"
    },
    {
      "inputs": [],
      "name": "AccessControlBadConfirmation",
      "type": "error"
    },
    {
      "inputs": [
        {
          "internalType": "address",
          "name": "account",
          "type": "address"
        },
        {
          "internalType": "bytes32",
          "name": "neededRole",
          "type": "bytes32"
        }
      ],
      "name": "AccessControlUnauthorizedAccount",
      "type": "error"
    },
    {
      "inputs": [
        {
          "internalType": "address",
          "name": "target",
          "type": "address"
        }
      ],
      "name": "AddressEmptyCode",
      "type": "error"
    },
    {
      "inputs": [],
      "name": "AlreadyApplied",
      "type": "error"
    },
    {
      "inputs": [],
      "name": "AlreadyPaid",
      "type": "error"
    },
    {
      "inputs": [],
      "name": "ChainNotAllowed",
      "type": "error"
    },
    {
      "inputs": [],
      "name": "CostNotMet",
      "type": "error"
    },
    {
      "inputs": [],
      "name": "DeadlineNotPassed",
      "type": "error"
    },
    {
      "inputs": [
        {
          "internalType": "address",
          "name": "implementation",
          "type": "address"
        }
      ],
      "name": "ERC1967InvalidImplementation",
      "type": "error"
    },
    {
      "inputs": [],
      "name": "ERC1967NonPayable",
      "type": "error"
    },
    {
      "inputs": [
        {
          "internalType": "uint256",
          "name": "numerator",
          "type": "uint256"
        },
        {
          "internalType": "uint256",
          "name": "denominator",
          "type": "uint256"
        }
      ],
      "name": "ERC2981InvalidDefaultRoyalty",
      "type": "error"
    },
    {
      "inputs": [
        {
          "internalType": "address",
          "name": "receiver",
          "type": "address"
        }
      ],
      "name": "ERC2981InvalidDefaultRoyaltyReceiver",
      "type": "error"
    },
    {
      "inputs": [
        {
          "internalType": "uint256",
          "name": "tokenId",
          "type": "uint256"
        },
        {
          "internalType": "uint256",
          "name": "numerator",
          "type": "uint256"
        },
        {
          "internalType": "uint256",
          "name": "denominator",
          "type": "uint256"
        }
      ],
      "name": "ERC2981InvalidTokenRoyalty",
      "type": "error"
    },
    {
      "inputs": [
        {
          "internalType": "uint256",
          "name": "tokenId",
          "type": "uint256"
        },
        {
          "internalType": "address",
          "name": "receiver",
          "type": "address"
        }
      ],
      "name": "ERC2981InvalidTokenRoyaltyReceiver",
      "type": "error"
    },
    {
      "inputs": [
        {
          "internalType": "address",
          "name": "sender",
          "type": "address"
        },
        {
          "internalType": "uint256",
          "name": "tokenId",
          "type": "uint256"
        },
        {
          "internalType": "address",
          "name": "owner",
          "type": "address"
        }
      ],
      "name": "ERC721IncorrectOwner",
      "type": "error"
    },
    {
      "inputs": [
        {
          "internalType": "address",
          "name": "operator",
          "type": "address"
        },
        {
          "internalType": "uint256",
          "name": "tokenId",
          "type": "uint256"
        }
      ],
      "name": "ERC721InsufficientApproval",
      "type": "error"
    },
    {
      "inputs": [
        {
          "internalType": "address",
          "name": "approver",
          "type": "address"
        }
      ],
      "name": "ERC721InvalidApprover",
      "type": "error"
    },
    {
      "inputs": [
        {
          "internalType": "address",
          "name": "operator",
          "type": "address"
        }
      ],
      "name": "ERC721InvalidOperator",
      "type": "error"
    },
    {
      "inputs": [
        {
          "internalType": "address",
          "name": "owner",
          "type": "address"
        }
      ],
      "name": "ERC721InvalidOwner",
      "type": "error"
    },
    {
      "inputs": [
        {
          "internalType": "address",
          "name": "receiver",
          "type": "address"
        }
      ],
      "name": "ERC721InvalidReceiver",
      "type": "error"
    },
    {
      "inputs": [
        {
          "internalType": "address",
          "name": "sender",
          "type": "address"
        }
      ],
      "name": "ERC721InvalidSender",
      "type": "error"
    },
    {
      "inputs": [
        {
          "internalType": "uint256",
          "name": "tokenId",
          "type": "uint256"
        }
      ],
      "name": "ERC721NonexistentToken",
      "type": "error"
    },
    {
      "inputs": [],
      "name": "EnforcedPause",
      "type": "error"
    },
    {
      "inputs": [],
      "name": "ExpectedPause",
      "type": "error"
    },
    {
      "inputs": [],
      "name": "FailedCall",
      "type": "error"
    },
    {
      "inputs": [],
      "name": "FeeTooHigh",
      "type": "error"
    },
    {
      "inputs": [],
      "name": "InsufficientPayment",
      "type": "error"
    },
    {
      "inputs": [],
      "name": "InsufficientStake",
      "type": "error"
    },
    {
      "inputs": [],
      "name": "InvalidAddress",
      "type": "error"
    },
    {
      "inputs": [],
      "name": "InvalidAmount",
      "type": "error"
    },
    {
      "inputs": [],
      "name": "InvalidFreelancer",
      "type": "error"
    },
    {
      "inputs": [],
      "name": "InvalidInitialization",
      "type": "error"
    },
    {
      "inputs": [],
      "name": "InvalidJobId",
      "type": "error"
    },
    {
      "inputs": [],
      "name": "InvalidMilestone",
      "type": "error"
    },
    {
      "inputs": [],
      "name": "InvalidPrice",
      "type": "error"
    },
    {
      "inputs": [],
      "name": "InvalidRating",
      "type": "error"
    },
    {
      "inputs": [],
      "name": "InvalidStatus",
      "type": "error"
    },
    {
      "inputs": [],
      "name": "JobAlreadyAssigned",
      "type": "error"
    },
    {
      "inputs": [],
      "name": "LengthMismatch",
      "type": "error"
    },
    {
      "inputs": [],
      "name": "MilestoneAlreadyReleased",
      "type": "error"
    },
    {
      "inputs": [],
      "name": "NoRefundAvailable",
      "type": "error"
    },
    {
      "inputs": [],
      "name": "NotAuthorized",
      "type": "error"
    },
    {
      "inputs": [],
      "name": "NotClient",
      "type": "error"
    },
    {
      "inputs": [],
      "name": "NotDisputed",
      "type": "error"
    },
    {
      "inputs": [],
      "name": "NotFreelancer",
      "type": "error"
    },
    {
      "inputs": [],
      "name": "NotInitializing",
      "type": "error"
    },
    {
      "inputs": [],
      "name": "NotParty",
      "type": "error"
    },
    {
      "inputs": [],
      "name": "NotRouter",
      "type": "error"
    },
    {
      "inputs": [],
      "name": "OnlyArbitrator",
      "type": "error"
    },
    {
      "inputs": [
        {
          "internalType": "address",
          "name": "owner",
          "type": "address"
        }
      ],
      "name": "OwnableInvalidOwner",
      "type": "error"
    },
    {
      "inputs": [
        {
          "internalType": "address",
          "name": "account",
          "type": "address"
        }
      ],
      "name": "OwnableUnauthorizedAccount",
      "type": "error"
    },
    {
      "inputs": [],
      "name": "PriceFeedNotSet",
      "type": "error"
    },
    {
      "inputs": [],
      "name": "ReentrancyGuardReentrantCall",
      "type": "error"
    },
    {
      "inputs": [
        {
          "internalType": "address",
          "name": "token",
          "type": "address"
        }
      ],
      "name": "SafeERC20FailedOperation",
      "type": "error"
    },
    {
      "inputs": [],
      "name": "SelfHiring",
      "type": "error"
    },
    {
      "inputs": [],
      "name": "SenderNotAllowed",
      "type": "error"
    },
    {
      "inputs": [],
      "name": "StalePrice",
      "type": "error"
    },
    {
      "inputs": [],
      "name": "TokenNotWhitelisted",
      "type": "error"
    },
    {
      "inputs": [],
      "name": "TotalMismatch",
      "type": "error"
    },
    {
      "inputs": [],
      "name": "TransferFailed",
      "type": "error"
    },
    {
      "inputs": [],
      "name": "UUPSUnauthorizedCallContext",
      "type": "error"
    },
    {
      "inputs": [
        {
          "internalType": "bytes32",
          "name": "slot",
          "type": "bytes32"
        }
      ],
      "name": "UUPSUnsupportedProxiableUUID",
      "type": "error"
    },
    {
      "anonymous": false,
      "inputs": [
        {
          "indexed": true,
          "internalType": "address",
          "name": "owner",
          "type": "address"
        },
        {
          "indexed": true,
          "internalType": "address",
          "name": "approved",
          "type": "address"
        },
        {
          "indexed": true,
          "internalType": "uint256",
          "name": "tokenId",
          "type": "uint256"
        }
      ],
      "name": "Approval",
      "type": "event"
    },
    {
      "anonymous": false,
      "inputs": [
        {
          "indexed": true,
          "internalType": "address",
          "name": "owner",
          "type": "address"
        },
        {
          "indexed": true,
          "internalType": "address",
          "name": "operator",
          "type": "address"
        },
        {
          "indexed": false,
          "internalType": "bool",
          "name": "approved",
          "type": "bool"
        }
      ],
      "name": "ApprovalForAll",
      "type": "event"
    },
    {
      "anonymous": false,
      "inputs": [
        {
          "indexed": false,
          "internalType": "uint256",
          "name": "_fromTokenId",
          "type": "uint256"
        },
        {
          "indexed": false,
          "internalType": "uint256",
          "name": "_toTokenId",
          "type": "uint256"
        }
      ],
      "name": "BatchMetadataUpdate",
      "type": "event"
    },
    {
      "anonymous": false,
      "inputs": [
        {
          "indexed": true,
          "internalType": "bytes32",
          "name": "messageId",
          "type": "bytes32"
        },
        {
          "indexed": true,
          "internalType": "uint64",
          "name": "sourceChainSelector",
          "type": "uint64"
        },
        {
          "indexed": false,
          "internalType": "address",
          "name": "sender",
          "type": "address"
        }
      ],
      "name": "CCIPMessageReceived",
      "type": "event"
    },
    {
      "anonymous": false,
      "inputs": [
        {
          "indexed": true,
          "internalType": "contract IArbitrator",
          "name": "_arbitrator",
          "type": "address"
        },
        {
          "indexed": true,
          "internalType": "uint256",
          "name": "_disputeID",
          "type": "uint256"
        },
        {
          "indexed": false,
          "internalType": "uint256",
          "name": "_metaEvidenceID",
          "type": "uint256"
        },
        {
          "indexed": false,
          "internalType": "uint256",
          "name": "_evidenceID",
          "type": "uint256"
        }
      ],
      "name": "Dispute",
      "type": "event"
    },
    {
      "anonymous": false,
      "inputs": [
        {
          "indexed": true,
          "internalType": "uint256",
          "name": "jobId",
          "type": "uint256"
        },
        {
          "indexed": true,
          "internalType": "address",
          "name": "raiser",
          "type": "address"
        }
      ],
      "name": "DisputeRaised",
      "type": "event"
    },
    {
      "anonymous": false,
      "inputs": [
        {
          "indexed": true,
          "internalType": "uint256",
          "name": "jobId",
          "type": "uint256"
        },
        {
          "indexed": false,
          "internalType": "uint256",
          "name": "freelancerAmount",
          "type": "uint256"
        },
        {
          "indexed": false,
          "internalType": "uint256",
          "name": "clientAmount",
          "type": "uint256"
        }
      ],
      "name": "DisputeResolvedManual",
      "type": "event"
    },
    {
      "anonymous": false,
      "inputs": [
        {
          "indexed": true,
          "internalType": "contract IArbitrator",
          "name": "_arbitrator",
          "type": "address"
        },
        {
          "indexed": true,
          "internalType": "uint256",
          "name": "_evidenceID",
          "type": "uint256"
        },
        {
          "indexed": true,
          "internalType": "address",
          "name": "_party",
          "type": "address"
        },
        {
          "indexed": false,
          "internalType": "string",
          "name": "_evidence",
          "type": "string"
        }
      ],
      "name": "Evidence",
      "type": "event"
    },
    {
      "anonymous": false,
      "inputs": [
        {
          "indexed": true,
          "internalType": "uint256",
          "name": "jobId",
          "type": "uint256"
        },
        {
          "indexed": true,
          "internalType": "address",
          "name": "freelancer",
          "type": "address"
        }
      ],
      "name": "FreelancerSelected",
      "type": "event"
    },
    {
      "anonymous": false,
      "inputs": [
        {
          "indexed": true,
          "internalType": "uint256",
          "name": "jobId",
          "type": "uint256"
        },
        {
          "indexed": true,
          "internalType": "address",
          "name": "freelancer",
          "type": "address"
        },
        {
          "indexed": false,
          "internalType": "uint256",
          "name": "amount",
          "type": "uint256"
        },
        {
          "indexed": false,
          "internalType": "uint256",
          "name": "nftId",
          "type": "uint256"
        }
      ],
      "name": "FundsReleased",
      "type": "event"
    },
    {
      "anonymous": false,
      "inputs": [
        {
          "indexed": false,
          "internalType": "uint64",
          "name": "version",
          "type": "uint64"
        }
      ],
      "name": "Initialized",
      "type": "event"
    },
    {
      "anonymous": false,
      "inputs": [
        {
          "indexed": true,
          "internalType": "uint256",
          "name": "jobId",
          "type": "uint256"
        },
        {
          "indexed": false,
          "internalType": "uint256",
          "name": "amount",
          "type": "uint256"
        }
      ],
      "name": "InsurancePaid",
      "type": "event"
    },
    {
      "anonymous": false,
      "inputs": [
        {
          "indexed": true,
          "internalType": "uint256",
          "name": "jobId",
          "type": "uint256"
        },
        {
          "indexed": true,
          "internalType": "address",
          "name": "freelancer",
          "type": "address"
        },
        {
          "indexed": false,
          "internalType": "uint256",
          "name": "stake",
          "type": "uint256"
        }
      ],
      "name": "JobAccepted",
      "type": "event"
    },
    {
      "anonymous": false,
      "inputs": [
        {
          "indexed": true,
          "internalType": "uint256",
          "name": "jobId",
          "type": "uint256"
        },
        {
          "indexed": true,
          "internalType": "address",
          "name": "freelancer",
          "type": "address"
        },
        {
          "indexed": false,
          "internalType": "uint256",
          "name": "stake",
          "type": "uint256"
        }
      ],
      "name": "JobApplied",
      "type": "event"
    },
    {
      "anonymous": false,
      "inputs": [
        {
          "indexed": true,
          "internalType": "uint256",
          "name": "jobId",
          "type": "uint256"
        }
      ],
      "name": "JobCancelled",
      "type": "event"
    },
    {
      "anonymous": false,
      "inputs": [
        {
          "indexed": true,
          "internalType": "uint256",
          "name": "jobId",
          "type": "uint256"
        },
        {
          "indexed": true,
          "internalType": "address",
          "name": "client",
          "type": "address"
        },
        {
          "indexed": true,
          "internalType": "address",
          "name": "freelancer",
          "type": "address"
        },
        {
          "indexed": false,
          "internalType": "uint256",
          "name": "amount",
          "type": "uint256"
        },
        {
          "indexed": false,
          "internalType": "uint256",
          "name": "deadline",
          "type": "uint256"
        }
      ],
      "name": "JobCreated",
      "type": "event"
    },
    {
      "anonymous": false,
      "inputs": [
        {
          "indexed": true,
          "internalType": "uint256",
          "name": "jobId",
          "type": "uint256"
        }
      ],
      "name": "JobDisputed",
      "type": "event"
    },
    {
      "anonymous": false,
      "inputs": [
        {
          "indexed": false,
          "internalType": "uint256",
          "name": "_tokenId",
          "type": "uint256"
        }
      ],
      "name": "MetadataUpdate",
      "type": "event"
    },
    {
      "anonymous": false,
      "inputs": [
        {
          "indexed": true,
          "internalType": "uint256",
          "name": "jobId",
          "type": "uint256"
        },
        {
          "indexed": true,
          "internalType": "uint256",
          "name": "milestoneId",
          "type": "uint256"
        },
        {
          "indexed": false,
          "internalType": "uint256",
          "name": "amount",
          "type": "uint256"
        }
      ],
      "name": "MilestoneReleased",
      "type": "event"
    },
    {
      "anonymous": false,
      "inputs": [
        {
          "indexed": true,
          "internalType": "uint256",
          "name": "jobId",
          "type": "uint256"
        },
        {
          "indexed": false,
          "internalType": "uint256[]",
          "name": "amounts",
          "type": "uint256[]"
        },
        {
          "indexed": false,
          "internalType": "string[]",
          "name": "ipfsHashes",
          "type": "string[]"
        }
      ],
      "name": "MilestonesDefined",
      "type": "event"
    },
    {
      "anonymous": false,
      "inputs": [
        {
          "indexed": true,
          "internalType": "address",
          "name": "previousOwner",
          "type": "address"
        },
        {
          "indexed": true,
          "internalType": "address",
          "name": "newOwner",
          "type": "address"
        }
      ],
      "name": "OwnershipTransferred",
      "type": "event"
    },
    {
      "anonymous": false,
      "inputs": [
        {
          "indexed": false,
          "internalType": "address",
          "name": "account",
          "type": "address"
        }
      ],
      "name": "Paused",
      "type": "event"
    },
    {
      "anonymous": false,
      "inputs": [
        {
          "indexed": true,
          "internalType": "address",
          "name": "user",
          "type": "address"
        },
        {
          "indexed": true,
          "internalType": "address",
          "name": "token",
          "type": "address"
        },
        {
          "indexed": true,
          "internalType": "uint256",
          "name": "amount",
          "type": "uint256"
        }
      ],
      "name": "RefundClaimed",
      "type": "event"
    },
    {
      "anonymous": false,
      "inputs": [
        {
          "indexed": true,
          "internalType": "uint256",
          "name": "jobId",
          "type": "uint256"
        },
        {
          "indexed": true,
          "internalType": "address",
          "name": "reviewer",
          "type": "address"
        },
        {
          "indexed": false,
          "internalType": "uint8",
          "name": "rating",
          "type": "uint8"
        },
        {
          "indexed": false,
          "internalType": "string",
          "name": "ipfsHash",
          "type": "string"
        }
      ],
      "name": "ReviewSubmitted",
      "type": "event"
    },
    {
      "anonymous": false,
      "inputs": [
        {
          "indexed": true,
          "internalType": "bytes32",
          "name": "role",
          "type": "bytes32"
        },
        {
          "indexed": true,
          "internalType": "bytes32",
          "name": "previousAdminRole",
          "type": "bytes32"
        },
        {
          "indexed": true,
          "internalType": "bytes32",
          "name": "newAdminRole",
          "type": "bytes32"
        }
      ],
      "name": "RoleAdminChanged",
      "type": "event"
    },
    {
      "anonymous": false,
      "inputs": [
        {
          "indexed": true,
          "internalType": "bytes32",
          "name": "role",
          "type": "bytes32"
        },
        {
          "indexed": true,
          "internalType": "address",
          "name": "account",
          "type": "address"
        },
        {
          "indexed": true,
          "internalType": "address",
          "name": "sender",
          "type": "address"
        }
      ],
      "name": "RoleGranted",
      "type": "event"
    },
    {
      "anonymous": false,
      "inputs": [
        {
          "indexed": true,
          "internalType": "bytes32",
          "name": "role",
          "type": "bytes32"
        },
        {
          "indexed": true,
          "internalType": "address",
          "name": "account",
          "type": "address"
        },
        {
          "indexed": true,
          "internalType": "address",
          "name": "sender",
          "type": "address"
        }
      ],
      "name": "RoleRevoked",
      "type": "event"
    },
    {
      "anonymous": false,
      "inputs": [
        {
          "indexed": true,
          "internalType": "contract IArbitrator",
          "name": "_arbitrator",
          "type": "address"
        },
        {
          "indexed": true,
          "internalType": "uint256",
          "name": "_disputeID",
          "type": "uint256"
        },
        {
          "indexed": false,
          "internalType": "uint256",
          "name": "_ruling",
          "type": "uint256"
        }
      ],
      "name": "Ruling",
      "type": "event"
    },
    {
      "anonymous": false,
      "inputs": [
        {
          "indexed": true,
          "internalType": "address",
          "name": "_arbitrator",
          "type": "address"
        },
        {
          "indexed": true,
          "internalType": "uint256",
          "name": "_disputeID",
          "type": "uint256"
        },
        {
          "indexed": false,
          "internalType": "uint256",
          "name": "_ruling",
          "type": "uint256"
        }
      ],
      "name": "Ruling",
      "type": "event"
    },
    {
      "anonymous": false,
      "inputs": [
        {
          "indexed": true,
          "internalType": "address",
          "name": "from",
          "type": "address"
        },
        {
          "indexed": true,
          "internalType": "address",
          "name": "to",
          "type": "address"
        },
        {
          "indexed": true,
          "internalType": "uint256",
          "name": "tokenId",
          "type": "uint256"
        }
      ],
      "name": "Transfer",
      "type": "event"
    },
    {
      "anonymous": false,
      "inputs": [
        {
          "indexed": false,
          "internalType": "address",
          "name": "account",
          "type": "address"
        }
      ],
      "name": "Unpaused",
      "type": "event"
    },
    {
      "anonymous": false,
      "inputs": [
        {
          "indexed": true,
          "internalType": "address",
          "name": "implementation",
          "type": "address"
        }
      ],
      "name": "Upgraded",
      "type": "event"
    },
    {
      "anonymous": false,
      "inputs": [
        {
          "indexed": true,
          "internalType": "address",
          "name": "oldVault",
          "type": "address"
        },
        {
          "indexed": true,
          "internalType": "address",
          "name": "newVault",
          "type": "address"
        }
      ],
      "name": "VaultUpdated",
      "type": "event"
    },
    {
      "anonymous": false,
      "inputs": [
        {
          "indexed": true,
          "internalType": "uint256",
          "name": "jobId",
          "type": "uint256"
        },
        {
          "indexed": true,
          "internalType": "address",
          "name": "freelancer",
          "type": "address"
        },
        {
          "indexed": false,
          "internalType": "string",
          "name": "ipfsHash",
          "type": "string"
        }
      ],
      "name": "WorkSubmitted",
      "type": "event"
    },
    {
      "inputs": [],
      "name": "APPLICATION_STAKE_PERCENT",
      "outputs": [
        {
          "internalType": "uint256",
          "name": "",
          "type": "uint256"
        }
      ],
      "stateMutability": "view",
      "type": "function"
    },
    {
      "inputs": [],
      "name": "ARBITRATOR_ROLE",
      "outputs": [
        {
          "internalType": "bytes32",
          "name": "",
          "type": "bytes32"
        }
      ],
      "stateMutability": "view",
      "type": "function"
    },
    {
      "inputs": [],
      "name": "DEFAULT_ADMIN_ROLE",
      "outputs": [
        {
          "internalType": "bytes32",
          "name": "",
          "type": "bytes32"
        }
      ],
      "stateMutability": "view",
      "type": "function"
    },
    {
      "inputs": [],
      "name": "FREELANCER_STAKE_PERCENT",
      "outputs": [
        {
          "internalType": "uint256",
          "name": "",
          "type": "uint256"
        }
      ],
      "stateMutability": "view",
      "type": "function"
    },
    {
      "inputs": [],
      "name": "INSURANCE_FEE_BPS",
      "outputs": [
        {
          "internalType": "uint256",
          "name": "",
          "type": "uint256"
        }
      ],
      "stateMutability": "view",
      "type": "function"
    },
    {
      "inputs": [],
      "name": "MANAGER_ROLE",
      "outputs": [
        {
          "internalType": "bytes32",
          "name": "",
          "type": "bytes32"
        }
      ],
      "stateMutability": "view",
      "type": "function"
    },
    {
      "inputs": [],
      "name": "REWARD_AMOUNT",
      "outputs": [
        {
          "internalType": "uint256",
          "name": "",
          "type": "uint256"
        }
      ],
      "stateMutability": "view",
      "type": "function"
    },
    {
      "inputs": [],
      "name": "UPGRADE_INTERFACE_VERSION",
      "outputs": [
        {
          "internalType": "string",
          "name": "",
          "type": "string"
        }
      ],
      "stateMutability": "view",
      "type": "function"
    },
    {
      "inputs": [
        {
          "internalType": "uint256",
          "name": "jobId",
          "type": "uint256"
        }
      ],
      "name": "acceptJob",
      "outputs": [],
      "stateMutability": "payable",
      "type": "function"
    },
    {
      "inputs": [
        {
          "internalType": "address",
          "name": "",
          "type": "address"
        }
      ],
      "name": "allowlistedSenders",
      "outputs": [
        {
          "internalType": "bool",
          "name": "",
          "type": "bool"
        }
      ],
      "stateMutability": "view",
      "type": "function"
    },
    {
      "inputs": [
        {
          "internalType": "uint64",
          "name": "",
          "type": "uint64"
        }
      ],
      "name": "allowlistedSourceChains",
      "outputs": [
        {
          "internalType": "bool",
          "name": "",
          "type": "bool"
        }
      ],
      "stateMutability": "view",
      "type": "function"
    },
    {
      "inputs": [
        {
          "internalType": "uint256",
          "name": "jobId",
          "type": "uint256"
        }
      ],
      "name": "applyForJob",
      "outputs": [],
      "stateMutability": "payable",
      "type": "function"
    },
    {
      "inputs": [
        {
          "internalType": "address",
          "name": "to",
          "type": "address"
        },
        {
          "internalType": "uint256",
          "name": "tokenId",
          "type": "uint256"
        }
      ],
      "name": "approve",
      "outputs": [],
      "stateMutability": "nonpayable",
      "type": "function"
    },
    {
      "inputs": [],
      "name": "arbitrator",
      "outputs": [
        {
          "internalType": "address",
          "name": "",
          "type": "address"
        }
      ],
      "stateMutability": "view",
      "type": "function"
    },
    {
      "inputs": [
        {
          "internalType": "address",
          "name": "owner",
          "type": "address"
        }
      ],
      "name": "balanceOf",
      "outputs": [
        {
          "internalType": "uint256",
          "name": "",
          "type": "uint256"
        }
      ],
      "stateMutability": "view",
      "type": "function"
    },
    {
      "inputs": [
        {
          "components": [
            {
              "internalType": "bytes32",
              "name": "messageId",
              "type": "bytes32"
            },
            {
              "internalType": "uint64",
              "name": "sourceChainSelector",
              "type": "uint64"
            },
            {
              "internalType": "bytes",
              "name": "sender",
              "type": "bytes"
            },
            {
              "internalType": "bytes",
              "name": "data",
              "type": "bytes"
            },
            {
              "components": [
                {
                  "internalType": "address",
                  "name": "token",
                  "type": "address"
                },
                {
                  "internalType": "uint256",
                  "name": "amount",
                  "type": "uint256"
                }
              ],
              "internalType": "struct Client.EVMTokenAmount[]",
              "name": "destTokenAmounts",
              "type": "tuple[]"
            }
          ],
          "internalType": "struct Client.Any2EVMMessage",
          "name": "message",
          "type": "tuple"
        }
      ],
      "name": "ccipReceive",
      "outputs": [],
      "stateMutability": "nonpayable",
      "type": "function"
    },
    {
      "inputs": [],
      "name": "ccipRouter",
      "outputs": [
        {
          "internalType": "address",
          "name": "",
          "type": "address"
        }
      ],
      "stateMutability": "view",
      "type": "function"
    },
    {
      "inputs": [
        {
          "internalType": "address",
          "name": "token",
          "type": "address"
        }
      ],
      "name": "claimRefund",
      "outputs": [],
      "stateMutability": "nonpayable",
      "type": "function"
    },
    {
      "inputs": [
        {
          "internalType": "address",
          "name": "freelancer",
          "type": "address"
        },
        {
          "internalType": "address",
          "name": "token",
          "type": "address"
        },
        {
          "internalType": "uint256",
          "name": "amount",
          "type": "uint256"
        },
        {
          "internalType": "string",
          "name": "_ipfsHash",
          "type": "string"
        },
        {
          "internalType": "uint256",
          "name": "durationDays",
          "type": "uint256"
        },
        {
          "internalType": "uint256",
          "name": "categoryId",
          "type": "uint256"
        }
      ],
      "name": "createJob",
      "outputs": [],
      "stateMutability": "payable",
      "type": "function"
    },
    {
      "inputs": [
        {
          "internalType": "address",
          "name": "freelancer",
          "type": "address"
        },
        {
          "internalType": "address",
          "name": "token",
          "type": "address"
        },
        {
          "internalType": "uint256",
          "name": "amount",
          "type": "uint256"
        },
        {
          "internalType": "string",
          "name": "_ipfsHash",
          "type": "string"
        },
        {
          "internalType": "uint256[]",
          "name": "milestoneAmounts",
          "type": "uint256[]"
        },
        {
          "internalType": "string[]",
          "name": "milestoneIpfsHashes",
          "type": "string[]"
        },
        {
          "internalType": "uint256",
          "name": "categoryId",
          "type": "uint256"
        }
      ],
      "name": "createJobWithMilestones",
      "outputs": [],
      "stateMutability": "payable",
      "type": "function"
    },
    {
      "inputs": [
        {
          "internalType": "uint256",
          "name": "jobId",
          "type": "uint256"
        }
      ],
      "name": "dispute",
      "outputs": [],
      "stateMutability": "payable",
      "type": "function"
    },
    {
      "inputs": [
        {
          "internalType": "uint256",
          "name": "",
          "type": "uint256"
        }
      ],
      "name": "disputeIdToJobId",
      "outputs": [
        {
          "internalType": "uint256",
          "name": "",
          "type": "uint256"
        }
      ],
      "stateMutability": "view",
      "type": "function"
    },
    {
      "inputs": [
        {
          "internalType": "uint256",
          "name": "tokenId",
          "type": "uint256"
        }
      ],
      "name": "getApproved",
      "outputs": [
        {
          "internalType": "address",
          "name": "",
          "type": "address"
        }
      ],
      "stateMutability": "view",
      "type": "function"
    },
    {
      "inputs": [
        {
          "internalType": "bytes32",
          "name": "role",
          "type": "bytes32"
        }
      ],
      "name": "getRoleAdmin",
      "outputs": [
        {
          "internalType": "bytes32",
          "name": "",
          "type": "bytes32"
        }
      ],
      "stateMutability": "view",
      "type": "function"
    },
    {
      "inputs": [
        {
          "internalType": "address",
          "name": "token",
          "type": "address"
        },
        {
          "internalType": "uint256",
          "name": "amount",
          "type": "uint256"
        }
      ],
      "name": "getUSDValue",
      "outputs": [
        {
          "internalType": "uint256",
          "name": "",
          "type": "uint256"
        }
      ],
      "stateMutability": "view",
      "type": "function"
    },
    {
      "inputs": [
        {
          "internalType": "bytes32",
          "name": "role",
          "type": "bytes32"
        },
        {
          "internalType": "address",
          "name": "account",
          "type": "address"
        }
      ],
      "name": "grantRole",
      "outputs": [],
      "stateMutability": "nonpayable",
      "type": "function"
    },
    {
      "inputs": [
        {
          "internalType": "uint256",
          "name": "",
          "type": "uint256"
        },
        {
          "internalType": "address",
          "name": "",
          "type": "address"
        }
      ],
      "name": "hasApplied",
      "outputs": [
        {
          "internalType": "bool",
          "name": "",
          "type": "bool"
        }
      ],
      "stateMutability": "view",
      "type": "function"
    },
    {
      "inputs": [
        {
          "internalType": "bytes32",
          "name": "role",
          "type": "bytes32"
        },
        {
          "internalType": "address",
          "name": "account",
          "type": "address"
        }
      ],
      "name": "hasRole",
      "outputs": [
        {
          "internalType": "bool",
          "name": "",
          "type": "bool"
        }
      ],
      "stateMutability": "view",
      "type": "function"
    },
    {
      "inputs": [
        {
          "internalType": "address",
          "name": "initialOwner",
          "type": "address"
        },
        {
          "internalType": "address",
          "name": "trustedForwarder",
          "type": "address"
        },
        {
          "internalType": "address",
          "name": "_ccipRouter",
          "type": "address"
        },
        {
          "internalType": "address",
          "name": "_insurancePool",
          "type": "address"
        },
        {
          "internalType": "address",
          "name": "_lzEndpoint",
          "type": "address"
        }
      ],
      "name": "initialize",
      "outputs": [],
      "stateMutability": "nonpayable",
      "type": "function"
    },
    {
      "inputs": [],
      "name": "insurancePool",
      "outputs": [
        {
          "internalType": "address",
          "name": "",
          "type": "address"
        }
      ],
      "stateMutability": "view",
      "type": "function"
    },
    {
      "inputs": [
        {
          "internalType": "address",
          "name": "owner",
          "type": "address"
        },
        {
          "internalType": "address",
          "name": "operator",
          "type": "address"
        }
      ],
      "name": "isApprovedForAll",
      "outputs": [
        {
          "internalType": "bool",
          "name": "",
          "type": "bool"
        }
      ],
      "stateMutability": "view",
      "type": "function"
    },
    {
      "inputs": [
        {
          "internalType": "uint256",
          "name": "",
          "type": "uint256"
        },
        {
          "internalType": "uint256",
          "name": "",
          "type": "uint256"
        }
      ],
      "name": "jobApplications",
      "outputs": [
        {
          "internalType": "address",
          "name": "freelancer",
          "type": "address"
        },
        {
          "internalType": "uint256",
          "name": "stake",
          "type": "uint256"
        }
      ],
      "stateMutability": "view",
      "type": "function"
    },
    {
      "inputs": [],
      "name": "jobCount",
      "outputs": [
        {
          "internalType": "uint256",
          "name": "",
          "type": "uint256"
        }
      ],
      "stateMutability": "view",
      "type": "function"
    },
    {
      "inputs": [
        {
          "internalType": "uint256",
          "name": "",
          "type": "uint256"
        },
        {
          "internalType": "uint256",
          "name": "",
          "type": "uint256"
        }
      ],
      "name": "jobMilestones",
      "outputs": [
        {
          "internalType": "uint256",
          "name": "amount",
          "type": "uint256"
        },
        {
          "internalType": "string",
          "name": "ipfsHash",
          "type": "string"
        },
        {
          "internalType": "bool",
          "name": "isReleased",
          "type": "bool"
        }
      ],
      "stateMutability": "view",
      "type": "function"
    },
    {
      "inputs": [
        {
          "internalType": "uint256",
          "name": "",
          "type": "uint256"
        }
      ],
      "name": "jobs",
      "outputs": [
        {
          "internalType": "address",
          "name": "client",
          "type": "address"
        },
        {
          "internalType": "uint32",
          "name": "id",
          "type": "uint32"
        },
        {
          "internalType": "uint48",
          "name": "deadline",
          "type": "uint48"
        },
        {
          "internalType": "enum FreelanceEscrow.JobStatus",
          "name": "status",
          "type": "uint8"
        },
        {
          "internalType": "uint8",
          "name": "rating",
          "type": "uint8"
        },
        {
          "internalType": "address",
          "name": "freelancer",
          "type": "address"
        },
        {
          "internalType": "uint16",
          "name": "categoryId",
          "type": "uint16"
        },
        {
          "internalType": "uint16",
          "name": "milestoneCount",
          "type": "uint16"
        },
        {
          "internalType": "bool",
          "name": "paid",
          "type": "bool"
        },
        {
          "internalType": "address",
          "name": "token",
          "type": "address"
        },
        {
          "internalType": "uint256",
          "name": "amount",
          "type": "uint256"
        },
        {
          "internalType": "uint256",
          "name": "freelancerStake",
          "type": "uint256"
        },
        {
          "internalType": "uint256",
          "name": "totalPaidOut",
          "type": "uint256"
        },
        {
          "internalType": "string",
          "name": "ipfsHash",
          "type": "string"
        }
      ],
      "stateMutability": "view",
      "type": "function"
    },
    {
      "inputs": [],
      "name": "lzEndpoint",
      "outputs": [
        {
          "internalType": "address",
          "name": "",
          "type": "address"
        }
      ],
      "stateMutability": "view",
      "type": "function"
    },
    {
      "inputs": [],
      "name": "name",
      "outputs": [
        {
          "internalType": "string",
          "name": "",
          "type": "string"
        }
      ],
      "stateMutability": "view",
      "type": "function"
    },
    {
      "inputs": [],
      "name": "owner",
      "outputs": [
        {
          "internalType": "address",
          "name": "",
          "type": "address"
        }
      ],
      "stateMutability": "view",
      "type": "function"
    },
    {
      "inputs": [
        {
          "internalType": "uint256",
          "name": "tokenId",
          "type": "uint256"
        }
      ],
      "name": "ownerOf",
      "outputs": [
        {
          "internalType": "address",
          "name": "",
          "type": "address"
        }
      ],
      "stateMutability": "view",
      "type": "function"
    },
    {
      "inputs": [],
      "name": "pause",
      "outputs": [],
      "stateMutability": "nonpayable",
      "type": "function"
    },
    {
      "inputs": [],
      "name": "paused",
      "outputs": [
        {
          "internalType": "bool",
          "name": "",
          "type": "bool"
        }
      ],
      "stateMutability": "view",
      "type": "function"
    },
    {
      "inputs": [
        {
          "internalType": "uint32",
          "name": "",
          "type": "uint32"
        }
      ],
      "name": "peers",
      "outputs": [
        {
          "internalType": "bytes32",
          "name": "",
          "type": "bytes32"
        }
      ],
      "stateMutability": "view",
      "type": "function"
    },
    {
      "inputs": [
        {
          "internalType": "address",
          "name": "",
          "type": "address"
        },
        {
          "internalType": "address",
          "name": "",
          "type": "address"
        }
      ],
      "name": "pendingRefunds",
      "outputs": [
        {
          "internalType": "uint256",
          "name": "",
          "type": "uint256"
        }
      ],
      "stateMutability": "view",
      "type": "function"
    },
    {
      "inputs": [
        {
          "internalType": "uint256",
          "name": "jobId",
          "type": "uint256"
        },
        {
          "internalType": "address",
          "name": "freelancer",
          "type": "address"
        }
      ],
      "name": "pickFreelancer",
      "outputs": [],
      "stateMutability": "nonpayable",
      "type": "function"
    },
    {
      "inputs": [],
      "name": "platformFeeBps",
      "outputs": [
        {
          "internalType": "uint256",
          "name": "",
          "type": "uint256"
        }
      ],
      "stateMutability": "view",
      "type": "function"
    },
    {
      "inputs": [],
      "name": "polyToken",
      "outputs": [
        {
          "internalType": "address",
          "name": "",
          "type": "address"
        }
      ],
      "stateMutability": "view",
      "type": "function"
    },
    {
      "inputs": [],
      "name": "proxiableUUID",
      "outputs": [
        {
          "internalType": "bytes32",
          "name": "",
          "type": "bytes32"
        }
      ],
      "stateMutability": "view",
      "type": "function"
    },
    {
      "inputs": [
        {
          "internalType": "uint256",
          "name": "jobId",
          "type": "uint256"
        }
      ],
      "name": "refundExpiredJob",
      "outputs": [],
      "stateMutability": "nonpayable",
      "type": "function"
    },
    {
      "inputs": [
        {
          "internalType": "uint256",
          "name": "jobId",
          "type": "uint256"
        }
      ],
      "name": "releaseFunds",
      "outputs": [],
      "stateMutability": "nonpayable",
      "type": "function"
    },
    {
      "inputs": [
        {
          "internalType": "uint256",
          "name": "jobId",
          "type": "uint256"
        },
        {
          "internalType": "uint256",
          "name": "milestoneId",
          "type": "uint256"
        }
      ],
      "name": "releaseMilestone",
      "outputs": [],
      "stateMutability": "nonpayable",
      "type": "function"
    },
    {
      "inputs": [],
      "name": "renounceOwnership",
      "outputs": [],
      "stateMutability": "nonpayable",
      "type": "function"
    },
    {
      "inputs": [
        {
          "internalType": "bytes32",
          "name": "role",
          "type": "bytes32"
        },
        {
          "internalType": "address",
          "name": "callerConfirmation",
          "type": "address"
        }
      ],
      "name": "renounceRole",
      "outputs": [],
      "stateMutability": "nonpayable",
      "type": "function"
    },
    {
      "inputs": [],
      "name": "reputationContract",
      "outputs": [
        {
          "internalType": "address",
          "name": "",
          "type": "address"
        }
      ],
      "stateMutability": "view",
      "type": "function"
    },
    {
      "inputs": [
        {
          "internalType": "uint256",
          "name": "jobId",
          "type": "uint256"
        },
        {
          "internalType": "address",
          "name": "winner",
          "type": "address"
        },
        {
          "internalType": "uint256",
          "name": "freelancerPayout",
          "type": "uint256"
        }
      ],
      "name": "resolveDispute",
      "outputs": [],
      "stateMutability": "nonpayable",
      "type": "function"
    },
    {
      "inputs": [
        {
          "internalType": "uint256",
          "name": "jobId",
          "type": "uint256"
        },
        {
          "internalType": "uint256",
          "name": "freelancerShareBps",
          "type": "uint256"
        }
      ],
      "name": "resolveDisputeManual",
      "outputs": [],
      "stateMutability": "nonpayable",
      "type": "function"
    },
    {
      "inputs": [
        {
          "internalType": "uint256",
          "name": "",
          "type": "uint256"
        }
      ],
      "name": "reviews",
      "outputs": [
        {
          "internalType": "uint8",
          "name": "rating",
          "type": "uint8"
        },
        {
          "internalType": "string",
          "name": "ipfsHash",
          "type": "string"
        },
        {
          "internalType": "address",
          "name": "reviewer",
          "type": "address"
        }
      ],
      "stateMutability": "view",
      "type": "function"
    },
    {
      "inputs": [
        {
          "internalType": "bytes32",
          "name": "role",
          "type": "bytes32"
        },
        {
          "internalType": "address",
          "name": "account",
          "type": "address"
        }
      ],
      "name": "revokeRole",
      "outputs": [],
      "stateMutability": "nonpayable",
      "type": "function"
    },
    {
      "inputs": [
        {
          "internalType": "uint256",
          "name": "tokenId",
          "type": "uint256"
        },
        {
          "internalType": "uint256",
          "name": "salePrice",
          "type": "uint256"
        }
      ],
      "name": "royaltyInfo",
      "outputs": [
        {
          "internalType": "address",
          "name": "receiver",
          "type": "address"
        },
        {
          "internalType": "uint256",
          "name": "amount",
          "type": "uint256"
        }
      ],
      "stateMutability": "view",
      "type": "function"
    },
    {
      "inputs": [
        {
          "internalType": "uint256",
          "name": "_disputeID",
          "type": "uint256"
        },
        {
          "internalType": "uint256",
          "name": "_ruling",
          "type": "uint256"
        }
      ],
      "name": "rule",
      "outputs": [],
      "stateMutability": "nonpayable",
      "type": "function"
    },
    {
      "inputs": [
        {
          "internalType": "address",
          "name": "from",
          "type": "address"
        },
        {
          "internalType": "address",
          "name": "to",
          "type": "address"
        },
        {
          "internalType": "uint256",
          "name": "tokenId",
          "type": "uint256"
        }
      ],
      "name": "safeTransferFrom",
      "outputs": [],
      "stateMutability": "nonpayable",
      "type": "function"
    },
    {
      "inputs": [
        {
          "internalType": "address",
          "name": "from",
          "type": "address"
        },
        {
          "internalType": "address",
          "name": "to",
          "type": "address"
        },
        {
          "internalType": "uint256",
          "name": "tokenId",
          "type": "uint256"
        },
        {
          "internalType": "bytes",
          "name": "data",
          "type": "bytes"
        }
      ],
      "name": "safeTransferFrom",
      "outputs": [],
      "stateMutability": "nonpayable",
      "type": "function"
    },
    {
      "inputs": [
        {
          "internalType": "uint256",
          "name": "jobId",
          "type": "uint256"
        },
        {
          "internalType": "string",
          "name": "ipfsHash",
          "type": "string"
        }
      ],
      "name": "saveIPFSHash",
      "outputs": [],
      "stateMutability": "nonpayable",
      "type": "function"
    },
    {
      "inputs": [],
      "name": "sbtContract",
      "outputs": [
        {
          "internalType": "address",
          "name": "",
          "type": "address"
        }
      ],
      "stateMutability": "view",
      "type": "function"
    },
    {
      "inputs": [
        {
          "internalType": "address",
          "name": "operator",
          "type": "address"
        },
        {
          "internalType": "bool",
          "name": "approved",
          "type": "bool"
        }
      ],
      "name": "setApprovalForAll",
      "outputs": [],
      "stateMutability": "nonpayable",
      "type": "function"
    },
    {
      "inputs": [
        {
          "internalType": "address",
          "name": "_pool",
          "type": "address"
        }
      ],
      "name": "setInsurancePool",
      "outputs": [],
      "stateMutability": "nonpayable",
      "type": "function"
    },
    {
      "inputs": [
        {
          "internalType": "uint32",
          "name": "_eid",
          "type": "uint32"
        },
        {
          "internalType": "bytes32",
          "name": "_peer",
          "type": "bytes32"
        }
      ],
      "name": "setPeer",
      "outputs": [],
      "stateMutability": "nonpayable",
      "type": "function"
    },
    {
      "inputs": [
        {
          "internalType": "uint256",
          "name": "_bps",
          "type": "uint256"
        }
      ],
      "name": "setPlatformFee",
      "outputs": [],
      "stateMutability": "nonpayable",
      "type": "function"
    },
    {
      "inputs": [
        {
          "internalType": "address",
          "name": "_token",
          "type": "address"
        }
      ],
      "name": "setPolyToken",
      "outputs": [],
      "stateMutability": "nonpayable",
      "type": "function"
    },
    {
      "inputs": [
        {
          "internalType": "address",
          "name": "token",
          "type": "address"
        },
        {
          "internalType": "address",
          "name": "priceFeed",
          "type": "address"
        }
      ],
      "name": "setPriceFeed",
      "outputs": [],
      "stateMutability": "nonpayable",
      "type": "function"
    },
    {
      "inputs": [
        {
          "internalType": "address",
          "name": "_reputation",
          "type": "address"
        }
      ],
      "name": "setReputationContract",
      "outputs": [],
      "stateMutability": "nonpayable",
      "type": "function"
    },
    {
      "inputs": [
        {
          "internalType": "address",
          "name": "token",
          "type": "address"
        },
        {
          "internalType": "bool",
          "name": "allowed",
          "type": "bool"
        }
      ],
      "name": "setTokenWhitelist",
      "outputs": [],
      "stateMutability": "nonpayable",
      "type": "function"
    },
    {
      "inputs": [
        {
          "internalType": "address",
          "name": "forwarder",
          "type": "address"
        }
      ],
      "name": "setTrustedForwarder",
      "outputs": [],
      "stateMutability": "nonpayable",
      "type": "function"
    },
    {
      "inputs": [
        {
          "internalType": "address",
          "name": "_vault",
          "type": "address"
        }
      ],
      "name": "setVault",
      "outputs": [],
      "stateMutability": "nonpayable",
      "type": "function"
    },
    {
      "inputs": [
        {
          "internalType": "uint256",
          "name": "jobId",
          "type": "uint256"
        },
        {
          "internalType": "uint8",
          "name": "rating",
          "type": "uint8"
        },
        {
          "internalType": "string",
          "name": "ipfsHash",
          "type": "string"
        }
      ],
      "name": "submitReview",
      "outputs": [],
      "stateMutability": "nonpayable",
      "type": "function"
    },
    {
      "inputs": [
        {
          "internalType": "uint256",
          "name": "jobId",
          "type": "uint256"
        },
        {
          "internalType": "string",
          "name": "ipfsHash",
          "type": "string"
        }
      ],
      "name": "submitWork",
      "outputs": [],
      "stateMutability": "nonpayable",
      "type": "function"
    },
    {
      "inputs": [
        {
          "internalType": "bytes4",
          "name": "interfaceId",
          "type": "bytes4"
        }
      ],
      "name": "supportsInterface",
      "outputs": [
        {
          "internalType": "bool",
          "name": "",
          "type": "bool"
        }
      ],
      "stateMutability": "view",
      "type": "function"
    },
    {
      "inputs": [],
      "name": "symbol",
      "outputs": [
        {
          "internalType": "string",
          "name": "",
          "type": "string"
        }
      ],
      "stateMutability": "view",
      "type": "function"
    },
    {
      "inputs": [
        {
          "internalType": "address",
          "name": "",
          "type": "address"
        }
      ],
      "name": "tokenPriceFeeds",
      "outputs": [
        {
          "internalType": "address",
          "name": "",
          "type": "address"
        }
      ],
      "stateMutability": "view",
      "type": "function"
    },
    {
      "inputs": [
        {
          "internalType": "uint256",
          "name": "tokenId",
          "type": "uint256"
        }
      ],
      "name": "tokenURI",
      "outputs": [
        {
          "internalType": "string",
          "name": "",
          "type": "string"
        }
      ],
      "stateMutability": "view",
      "type": "function"
    },
    {
      "inputs": [
        {
          "internalType": "address",
          "name": "from",
          "type": "address"
        },
        {
          "internalType": "address",
          "name": "to",
          "type": "address"
        },
        {
          "internalType": "uint256",
          "name": "tokenId",
          "type": "uint256"
        }
      ],
      "name": "transferFrom",
      "outputs": [],
      "stateMutability": "nonpayable",
      "type": "function"
    },
    {
      "inputs": [
        {
          "internalType": "address",
          "name": "newOwner",
          "type": "address"
        }
      ],
      "name": "transferOwnership",
      "outputs": [],
      "stateMutability": "nonpayable",
      "type": "function"
    },
    {
      "inputs": [],
      "name": "unpause",
      "outputs": [],
      "stateMutability": "nonpayable",
      "type": "function"
    },
    {
      "inputs": [
        {
          "internalType": "address",
          "name": "newImplementation",
          "type": "address"
        },
        {
          "internalType": "bytes",
          "name": "data",
          "type": "bytes"
        }
      ],
      "name": "upgradeToAndCall",
      "outputs": [],
      "stateMutability": "payable",
      "type": "function"
    },
    {
      "inputs": [],
      "name": "vault",
      "outputs": [
        {
          "internalType": "address",
          "name": "",
          "type": "address"
        }
      ],
      "stateMutability": "view",
      "type": "function"
    },
    {
      "inputs": [
        {
          "internalType": "address",
          "name": "",
          "type": "address"
        }
      ],
      "name": "whitelistedTokens",
      "outputs": [
        {
          "internalType": "bool",
          "name": "",
          "type": "bool"
        }
      ],
      "stateMutability": "view",
      "type": "function"
    }
  ],
  "bytecode": "0x60a06040523060805234801562000014575f80fd5b506200001f62000025565b620000d9565b7ff0c57e16840df040f15088dc2f81fe391c3923bec73e23a9662efc9c229c6a00805468010000000000000000900460ff1615620000765760405163f92ee8a960e01b815260040160405180910390fd5b80546001600160401b0390811614620000d65780546001600160401b0319166001600160401b0390811782556040519081527fc7f505b2f371ae2175ee4913f4499e1f2633a7b5936321eed1cdaeb6115181d29060200160405180910390a15b50565b60805161721d620001005f395f8181614189015281816141b201526142ea015261721d5ff3fe6080604052600436106103b9575f3560e01c806301ffc9a7146103bd57806306158360146103f157806306fdde031461041d578063081812fc1461043e578063095ea7b31461045d5780630de229841461047e57806312532d3d1461049d57806312e8e2c3146104bf5780631319b0a0146104de5780631459457a146104fd578063180aedf31461051c5780631ebcfb4b1461055557806322dcd13e1461057457806323b872dd14610589578063248a9ca3146105a85780632a55205a146105c75780632f2ff15d146105f4578063311a6c56146106135780633400288b1461063257806336568abe146106645780633f4ba83a146106835780634030d5211461069757806342842e0e146106c55780634c5d8a0f146106e45780634d68282f146106f95780634f1ef2861461071857806352d1902d1461072b5780635c975abb1461073f5780635dc1c250146107535780636159ada1146107665780636352211e1461079457806363b2f3c9146107b35780636817031b146107c657806368574222146107e55780636b0a30e2146108045780636cc6cde1146108235780636dd6382f146108425780636faa22a51461085557806370a0823114610874578063715018a61461089357806373a2b57f146108a757806374a5b693146108d557806376e11286146108f45780637c084cb3146109135780638456cb591461092757806385572ffb1461093b57806386d6282c1461095a57806387bc14251461096d5780638c2398e61461098c5780638da5cb5b146109c257806391d14854146109d65780639584660f146109f557806395d89b4114610a145780639c17e43914610a285780639cea078714610a47578063a217fddf14610a67578063a22cb46514610a7a578063a39bf54414610a99578063a94c487e14610ad2578063a9f335a514610af1578063ab2adc0014610b1c578063ad3cb1cc14610b3b578063af75974014610b6b578063b099a7df14610b7f578063b353aaa714610b9e578063b88d4fde14610bbc578063bb0b6a5314610bdb578063bd9c47e314610c06578063bffa55d514610c3a578063c87b56dd14610c59578063c9bcc97e14610c78578063cf84944214610c97578063d547741f14610cb3578063da74222814610cd2578063da8accf914610cf1578063daf9c21014610d10578063dbaf091014610d3e578063e0c94ae514610d5d578063e83ddcea14610d70578063e985e9c514610d9e578063ead39a1114610dbd578063ec87621c14610ddc578063f2fde38b14610dfc578063fa76dcf214610e1b578063fbfa77cf14610e3a575b5f80fd5b3480156103c8575f80fd5b506103dc6103d7366004615989565b610e59565b60405190151581526020015b60405180910390f35b3480156103fc575f80fd5b50600754610410906001600160a01b031681565b6040516103e891906159b1565b348015610428575f80fd5b50610431610e83565b6040516103e89190615a12565b348015610449575f80fd5b50610410610458366004615a24565b610f20565b348015610468575f80fd5b5061047c610477366004615a4f565b610f34565b005b348015610489575f80fd5b50600454610410906001600160a01b031681565b3480156104a8575f80fd5b506104b1600a81565b6040519081526020016103e8565b3480156104ca575f80fd5b5061047c6104d9366004615a24565b610f4a565b3480156104e9575f80fd5b5061047c6104f8366004615ab6565b610f8a565b348015610508575f80fd5b5061047c610517366004615afd565b611005565b348015610527575f80fd5b5061053b610536366004615a24565b61122a565b6040516103e89e9d9c9b9a99989796959493929190615b9e565b348015610560575f80fd5b5061047c61056f366004615c54565b611353565b34801561057f575f80fd5b506104b1600a5481565b348015610594575f80fd5b5061047c6105a3366004615c82565b611609565b3480156105b3575f80fd5b506104b16105c2366004615a24565b6116a2565b3480156105d2575f80fd5b506105e66105e1366004615cc0565b6116c0565b6040516103e8929190615ce0565b3480156105ff575f80fd5b5061047c61060e366004615c54565b611785565b34801561061e575f80fd5b5061047c61062d366004615cc0565b6117a1565b34801561063d575f80fd5b5061047c61064c366004615d11565b63ffffffff9091165f90815260016020526040902055565b34801561066f575f80fd5b5061047c61067e366004615c54565b611912565b34801561068e575f80fd5b5061047c61195a565b3480156106a2575f80fd5b506103dc6106b1366004615d2b565b600d6020525f908152604090205460ff1681565b3480156106d0575f80fd5b5061047c6106df366004615c82565b61197c565b3480156106ef575f80fd5b506104b160155481565b348015610704575f80fd5b5061047c610713366004615a24565b611996565b61047c610726366004615e00565b611e74565b348015610736575f80fd5b506104b1611e8f565b34801561074a575f80fd5b506103dc611eaa565b61047c610761366004615e4c565b611ebe565b348015610771575f80fd5b506103dc610780366004615ec4565b600e6020525f908152604090205460ff1681565b34801561079f575f80fd5b506104106107ae366004615a24565b611f9e565b61047c6107c1366004615a24565b611fa8565b3480156107d1575f80fd5b5061047c6107e0366004615ec4565b61212f565b3480156107f0575f80fd5b5061047c6107ff366004615a24565b6121bc565b34801561080f575f80fd5b5061047c61081e366004615ec4565b6123ad565b34801561082e575f80fd5b50600254610410906001600160a01b031681565b61047c610850366004615fe7565b6123da565b348015610860575f80fd5b50600654610410906001600160a01b031681565b34801561087f575f80fd5b506104b161088e366004615ec4565b61260d565b34801561089e575f80fd5b5061047c612662565b3480156108b2575f80fd5b506108c66108c1366004615cc0565b612675565b6040516103e89392919061609f565b3480156108e0575f80fd5b5061047c6108ef3660046160d7565b61272b565b3480156108ff575f80fd5b5061047c61090e36600461612e565b6129aa565b34801561091e575f80fd5b506104b1600581565b348015610932575f80fd5b5061047c6129ef565b348015610946575f80fd5b5061047c61095536600461615a565b612a0e565b61047c610968366004615a24565b612bd0565b348015610978575f80fd5b50600854610410906001600160a01b031681565b348015610997575f80fd5b506104b16109a636600461612e565b601460209081525f928352604080842090915290825290205481565b3480156109cd575f80fd5b50610410612dfb565b3480156109e1575f80fd5b506103dc6109f0366004615c54565b612e15565b348015610a00575f80fd5b5061047c610a0f366004615ec4565b612e49565b348015610a1f575f80fd5b50610431612e76565b348015610a33575f80fd5b5061047c610a42366004616190565b612e92565b348015610a52575f80fd5b506104b15f8051602061710883398151915281565b348015610a72575f80fd5b506104b15f81565b348015610a85575f80fd5b5061047c610a943660046161b4565b612fa8565b348015610aa4575f80fd5b506103dc610ab3366004615c54565b601360209081525f928352604080842090915290825290205460ff1681565b348015610add575f80fd5b5061047c610aec366004615ec4565b612fba565b348015610afc575f80fd5b506104b1610b0b366004615a24565b60166020525f908152604090205481565b348015610b27575f80fd5b50600554610410906001600160a01b031681565b348015610b46575f80fd5b50610431604051806040016040528060058152602001640352e302e360dc1b81525081565b348015610b76575f80fd5b506104b1606481565b348015610b8a575f80fd5b5061047c610b99366004615cc0565b612fe7565b348015610ba9575f80fd5b505f54610410906001600160a01b031681565b348015610bc7575f80fd5b5061047c610bd63660046161e4565b613168565b348015610be6575f80fd5b506104b1610bf536600461624b565b60016020525f908152604090205481565b348015610c11575f80fd5b50610410610c20366004615ec4565b600c6020525f90815260409020546001600160a01b031681565b348015610c45575f80fd5b5061047c610c54366004615ec4565b613187565b348015610c64575f80fd5b50610431610c73366004615a24565b61327e565b348015610c83575f80fd5b5061047c610c923660046161b4565b6133dd565b348015610ca2575f80fd5b506104b168056bc75e2d6310000081565b348015610cbe575f80fd5b5061047c610ccd366004615c54565b61341f565b348015610cdd575f80fd5b5061047c610cec366004615ec4565b61343b565b348015610cfc575f80fd5b5061047c610d0b366004615ab6565b613468565b348015610d1b575f80fd5b506103dc610d2a366004615ec4565b600b6020525f908152604090205460ff1681565b348015610d49575f80fd5b5061047c610d58366004615cc0565b613556565b61047c610d6b366004615a24565b61369c565b348015610d7b575f80fd5b50610d8f610d8a366004615a24565b6138b5565b6040516103e893929190616264565b348015610da9575f80fd5b506103dc610db836600461612e565b61396a565b348015610dc8575f80fd5b506105e6610dd7366004615cc0565b6139a7565b348015610de7575f80fd5b506104b15f8051602061714883398151915281565b348015610e07575f80fd5b5061047c610e16366004615ec4565b6139e9565b348015610e26575f80fd5b506104b1610e35366004615a4f565b613a23565b348015610e45575f80fd5b50600954610410906001600160a01b031681565b5f6001600160e01b031982166385572ffb60e01b1480610e7d5750610e7d82613a51565b92915050565b60605f610e8e613a75565b9050805f018054610e9e90616297565b80601f0160208091040260200160405190810160405280929190818152602001828054610eca90616297565b8015610f155780601f10610eec57610100808354040283529160200191610f15565b820191905f5260205f20905b815481529060010190602001808311610ef857829003601f168201915b505050505091505090565b5f610f2a82613a99565b50610e7d82613ad0565b610f468282610f41613af7565b613b34565b5050565b5f80516020617148833981519152610f6181613b41565b6103e8821115610f845760405163cd4e616760e01b815260040160405180910390fd5b50600a55565b5f838152600f6020526040812090610fa0613af7565b82549091506001600160a01b03808316911614801590610fd0575060018201546001600160a01b03828116911614155b15610fee5760405163ea8e4eb560e01b815260040160405180910390fd5b60068201610ffd848683616327565b505050505050565b5f61100e613b52565b805490915060ff600160401b82041615906001600160401b03165f811580156110345750825b90505f826001600160401b0316600114801561104f5750303b155b90508115801561105d575080155b1561107b5760405163f92ee8a960e01b815260040160405180910390fd5b84546001600160401b031916600117855583156110a457845460ff60401b1916600160401b1785555b6110f06040518060400160405280600d81526020016c467265656c616e6365576f726b60981b8152506040518060400160405280600581526020016446574f524b60d81b815250613b7a565b6110f8613b8c565b611100613b8c565b6111098a613b94565b611111613b8c565b611119613ba5565b611121613b8c565b611129613b8c565b5f80546001600160a01b0319166001600160a01b03881617905561114d5f8b613bb5565b506111655f805160206171088339815191528b613bb5565b5061117d5f805160206171488339815191528b613bb5565b50600280546001600160a01b03199081166001600160a01b038d81169182179093556003805483168d85161790556004805483168c8516179055600580548316938b169390931790925560098054909116909117905560fa600a55831561121e57845460ff60401b19168555604051600181527fc7f505b2f371ae2175ee4913f4499e1f2633a7b5936321eed1cdaeb6115181d29060200160405180910390a15b50505050505050505050565b600f6020525f908152604090208054600182015460028301546003840154600485015460058601546006870180546001600160a01b0380891699600160a01b808b0463ffffffff169a600160c01b80820465ffffffffffff169b600160f01b830460ff9081169c600160f81b90940481169b8783169b95830461ffff9081169b600160b01b85049091169a94909304909116979690931695929490929091906112d290616297565b80601f01602080910402602001604051908101604052809291908181526020018280546112fe90616297565b80156113495780601f1061132057610100808354040283529160200191611349565b820191905f5260205f20905b81548152906001019060200180831161132c57829003601f168201915b505050505090508e565b61135b613c54565b611363613c7a565b5f828152600f6020526040902080546001600160a01b0316611383613af7565b6001600160a01b0316146113aa5760405163ea8e4eb560e01b815260040160405180910390fd5b5f8154600160f01b900460ff1660068111156113c8576113c8615b6a565b146113e6576040516307a92f1960e51b815260040160405180910390fd5b60018101546001600160a01b03161561141257604051632c29a8ff60e21b815260040160405180910390fd5b5f8381526013602090815260408083206001600160a01b038616845290915290205460ff166114545760405163ea8e4eb560e01b815260040160405180910390fd5b6001810180546001600160a01b0319166001600160a01b038416179055805460ff60f01b1916600160f01b1781555f838152601260205260408120805490915b8181101561159357846001600160a01b03168382815481106114b8576114b86163db565b5f9182526020909120600290910201546001600160a01b031603611505578281815481106114e8576114e86163db565b905f5260205f20906002020160010154846004018190555061158b565b828181548110611517576115176163db565b905f5260205f2090600202016001015460145f85848154811061153c5761153c6163db565b5f9182526020808320600292830201546001600160a01b0390811685528482019590955260409384018320918a0154909416825290925281208054909190611585908490616403565b90915550505b600101611494565b506040516001600160a01b0385169086907f038b6dd13ab376cd96a6924f79dde494c7fbb5ea9f8c950b668d934645995cfd905f90a3836001600160a01b0316855f805160206171a883398151915285600401546040516115f691815260200190565b60405180910390a3505050610f46613caf565b6001600160a01b03821661163b575f604051633250574960e11b815260040161163291906159b1565b60405180910390fd5b5f61164e8383611649613af7565b613cbf565b9050836001600160a01b0316816001600160a01b03161461169c576040516364283d7b60e01b81526001600160a01b0380861660048301526024820184905282166044820152606401611632565b50505050565b5f806116ac613dc0565b5f9384526020525050604090206001015490565b5f8281527fdaedc9ab023613a7caf35e703657e986ccfad7e3eb0af93a2853f8d65dd86b0160205260408120805482917fdaedc9ab023613a7caf35e703657e986ccfad7e3eb0af93a2853f8d65dd86b00916001600160a01b03811690600160a01b90046001600160601b03168161175257505081546001600160a01b03811690600160a01b90046001600160601b03165b5f6127106117696001600160601b0384168a616416565b611773919061642d565b929650919450505050505b9250929050565b61178e826116a2565b61179781613b41565b61169c8383613bb5565b6117a9613c7a565b6002546001600160a01b031633146117d45760405163ea8e4eb560e01b815260040160405180910390fd5b5f82815260166020908152604080832054808452600f90925290912060038154600160f01b900460ff16600681111561180f5761180f615b6a565b1461182d576040516307a92f1960e51b815260040160405180910390fd5b6001818101805460ff60c01b1916600160c01b179055839003611890578054600360f11b60ff60f01b19821617825560028201546004830154600384015461188b936001600160a01b0390811693169161188691616403565b613de4565b6118d0565b805460ff60f01b1916600560f01b17815560018101546002820154600483015460038401546118d0936001600160a01b0390811693169161188691616403565b604051838152849033907f394027a5fa6e098a1191094d1719d6929b9abc535fcc0c8f448d6a4e75622276906020015b60405180910390a35050610f46613caf565b61191a613af7565b6001600160a01b0316816001600160a01b03161461194b5760405163334bd91960e11b815260040160405180910390fd5b6119558282613e76565b505050565b5f8051602061714883398151915261197181613b41565b611979613f0a565b50565b61195583838360405180602001604052805f815250613168565b61199e613c54565b6119a6613c7a565b5f818152600f6020526040902080546001600160a01b03166119c6613af7565b6001600160a01b0316146119ed5760405163ea8e4eb560e01b815260040160405180910390fd5b60028154600160f01b900460ff166006811115611a0c57611a0c615b6a565b14158015611a37575060018154600160f01b900460ff166006811115611a3457611a34615b6a565b14155b15611a55576040516307a92f1960e51b815260040160405180910390fd5b6001810154600160c01b900460ff1615611a8257604051630d70a0e360e41b815260040160405180910390fd5b60018101805460ff60c01b1916600160c01b179055805460ff60f01b1916600560f01b17815560038101545f9061271090611abf90606490616416565b611ac9919061642d565b90505f612710600a548460030154611ae19190616416565b611aeb919061642d565b90505f818385600501548660030154611b04919061644c565b611b0e919061644c565b611b18919061644c565b90505f846004015482611b2b9190616403565b90505f84118015611b4657506005546001600160a01b031615155b15611c865760028501546001600160a01b0316611bc65760055f9054906101000a90046001600160a01b03166001600160a01b031663db6b5246856040518263ffffffff1660e01b81526004015f604051808303818588803b158015611baa575f80fd5b505af1158015611bbc573d5f803e3d5ffd5b5050505050611c4b565b6005546002860154611be5916001600160a01b03918216911686613f66565b60055460028601546040516311f9fbc960e21b81526001600160a01b03928316926347e7ef2492611c1d929116908890600401615ce0565b5f604051808303815f87803b158015611c34575f80fd5b505af1158015611c46573d5f803e3d5ffd5b505050505b857f4c6689e32fad22a4404d6f9e662b4a93e40c16bdcb9d52916b05825be7c2d20c85604051611c7d91815260200190565b60405180910390a25b5f83118015611c9f57506009546001600160a01b031615155b15611cc3576009546002860154611cc3916001600160a01b03908116911685613de4565b8015611cea5760018501546002860154611cea916001600160a01b03908116911683613de4565b60018501548690611d04906001600160a01b031682613fed565b611d9881876006018054611d1790616297565b80601f0160208091040260200160405190810160405280929190818152602001828054611d4390616297565b8015611d8e5780601f10611d6557610100808354040283529160200191611d8e565b820191905f5260205f20905b815481529060010190602001808311611d7157829003601f168201915b5050505050614006565b6008546001600160a01b031615611e23576008546001878101546040516335a42fa760e01b81526001600160a01b038083166004830152600160a01b90920461ffff1660248201526044810192909252909116906335a42fa7906064015f604051808303815f87803b158015611e0c575f80fd5b505af1158015611e1e573d5f803e3d5ffd5b505050505b611e2c87614078565b60018601546040516001600160a01b039091169088905f805160206170e883398151915290611e5e908690869061645f565b60405180910390a3505050505050611979613caf565b611e7c61417e565b611e8582614222565b610f46828261422c565b5f611e986142df565b505f8051602061712883398151915290565b5f80611eb4614328565b5460ff1692915050565b611ec6613c54565b611ece613c7a565b6001600160a01b03851615611f37576001600160a01b0385165f908152600b602052604090205460ff16611f15576040516307c241ad60e51b815260040160405180910390fd5b611f32611f20613af7565b6001600160a01b03871690308761434c565b611f58565b83341015611f585760405163cd1c886760e01b815260040160405180910390fd5b5f808311611f66575f611f7d565b611f738362015180616416565b611f7d9042616403565b9050611f95611f8a613af7565b8888888886886143b3565b50610ffd613caf565b5f610e7d82613a99565b611fb0613c7a565b5f818152600f60205260408120908154600160f01b900460ff166006811115611fdb57611fdb615b6a565b14611ff9576040516307a92f1960e51b815260040160405180910390fd5b60018101546001600160a01b0316612024576040516307a92f1960e51b815260040160405180910390fd5b5f61202d613af7565b60018301549091506001600160a01b038083169116146120605760405163ea8e4eb560e01b815260040160405180910390fd5b5f6064600a84600301546120749190616416565b61207e919061642d565b60028401549091506001600160a01b0316156120b35760028301546120ae906001600160a01b031683308461434c565b6120d4565b803410156120d4576040516378de4a6960e11b815260040160405180910390fd5b60048301819055825460ff60f01b1916600160f01b1783556120f4613af7565b6001600160a01b0316845f805160206171a88339815191528360405161211c91815260200190565b60405180910390a3505050611979613caf565b5f61213981613b41565b6001600160a01b0382166121605760405163e6c4247b60e01b815260040160405180910390fd5b6009546040516001600160a01b038085169216907f483bdedaaf23706a9800ac1af0d852b34927780d79f9d6ba60a80c7cad75ea39905f90a350600980546001600160a01b0319166001600160a01b0392909216919091179055565b6121c4613c7a565b5f818152600f602052604090206121d9613af7565b81546001600160a01b039081169116146122065760405163ea8e4eb560e01b815260040160405180910390fd5b8054600160c01b900465ffffffffffff16158061223357508054600160c01b900465ffffffffffff164211155b15612251576040516302eb354360e41b815260040160405180910390fd5b5f8154600160f01b900460ff16600681111561226f5761226f615b6a565b1415801561229a575060018154600160f01b900460ff16600681111561229757612297615b6a565b14155b156122b8576040516307a92f1960e51b815260040160405180910390fd5b6001810154600160c01b900460ff16156122e557604051630d70a0e360e41b815260040160405180910390fd5b60018101805460ff60c01b1916600160c01b179055805460ff60f01b198116600360f11b17825560038201546002830154909161232f916001600160a01b03918216911683613de4565b5f826004015411801561234e575060018201546001600160a01b031615155b1561237957600182015460028301546004840154612379926001600160a01b03908116921690613de4565b60405183907f58243f872c550ad02802199ade99eb4250f6bb19e9abbf2d3de7b969c0eb5e4f905f90a25050611979613caf565b5f6123b781613b41565b50600680546001600160a01b0319166001600160a01b0392909216919091179055565b6123e2613c54565b6123ea613c7a565b82515f90815b818110156124275785818151811061240a5761240a6163db565b60200260200101518361241d9190616403565b92506001016123f0565b508682146124485760405163162908e360e11b815260040160405180910390fd5b6001600160a01b038816156124b1576001600160a01b0388165f908152600b602052604090205460ff1661248f576040516307c241ad60e51b815260040160405180910390fd5b6124ac61249a613af7565b6001600160a01b038a1690308a61434c565b6124d2565b863410156124d25760405163cd1c886760e01b815260040160405180910390fd5b5f6124e96124de613af7565b8b8b8b8b868a6143b3565b6015545f818152600f60205260408120600101805461ffff60b01b1916600160b01b61ffff8716021790555b838110156125bd57604051806060016040528089838151811061253a5761253a6163db565b60200260200101518152602001888381518110612559576125596163db565b60209081029190910181015182525f918101829052848252601081526040808320858452825290912082518155908201516001820190612599908261646d565b50604091909101516002909101805460ff1916911515919091179055600101612515565b50807f74f7e810797fe0cf4e10e745c7421664a9769549a6a0db1f412901c918b941d188886040516125f0929190616523565b60405180910390a250505050612604613caf565b50505050505050565b5f80612617613a75565b90506001600160a01b038316612642575f6040516322718ad960e21b815260040161163291906159b1565b6001600160a01b039092165f908152600390920160205250604090205490565b61266a61468f565b6126735f6146d8565b565b601060209081525f9283526040808420909152908252902080546001820180549192916126a190616297565b80601f01602080910402602001604051908101604052809291908181526020018280546126cd90616297565b80156127185780601f106126ef57610100808354040283529160200191612718565b820191905f5260205f20905b8154815290600101906020018083116126fb57829003601f168201915b5050506002909301549192505060ff1683565b612733613c7a565b5f848152600f6020526040902060058154600160f01b900460ff16600681111561275f5761275f615b6a565b1461277d576040516307a92f1960e51b815260040160405180910390fd5b80546001600160a01b0316612790613af7565b6001600160a01b0316146127b75760405163ea8e4eb560e01b815260040160405180910390fd5b60018460ff1610806127cc575060058460ff16115b156127ea5760405163d29df2dd60e01b815260040160405180910390fd5b60405180606001604052808560ff16815260200184848080601f0160208091040260200160405190810160405280939291908181526020018383808284375f92019190915250505090825250602001612841613af7565b6001600160a01b031690525f8681526011602090815260409091208251815460ff191660ff90911617815590820151600182019061287f908261646d565b5060409190910151600290910180546001600160a01b0319166001600160a01b0392831617905581546001600160f81b0316600160f81b60ff87160217825560075416156129545760075460018201546040516311647f3f60e31b81526001600160a01b038083166004830152600160a01b90920461ffff16602482015260ff87166044820152911690638b23f9f8906064016020604051808303815f875af115801561292e573d5f803e3d5ffd5b505050506040513d601f19601f8201168201806040525081019061295291906165b9565b505b61295c613af7565b6001600160a01b0316857f1d4e9183da763b1e285cbd17de8d69818200b71822bc1d67e368eaadde895f1c868686604051612999939291906165f8565b60405180910390a35061169c613caf565b5f805160206171488339815191526129c181613b41565b506001600160a01b039182165f908152600c6020526040902080546001600160a01b03191691909216179055565b5f80516020617148833981519152612a0681613b41565b611979614732565b6004546001600160a01b03163314612a395760405163ea8e4eb560e01b815260040160405180910390fd5b600d5f612a4c6040840160208501615d2b565b6001600160401b0316815260208101919091526040015f205460ff16612a855760405163ea8e4eb560e01b815260040160405180910390fd5b5f612a936040830183616614565b810190612aa09190615ec4565b6001600160a01b0381165f908152600e602052604090205490915060ff16612adb5760405163ea8e4eb560e01b815260040160405180910390fd5b5f808080612aec6060870187616614565b810190612af99190616656565b929650909450925090505f612b1160808801886166b1565b5f818110612b2157612b216163db565b612b379260206040909202019081019150615ec4565b90505f612b4760808901896166b1565b5f818110612b5757612b576163db565b905060400201602001359050612b72878784848989896143b3565b612b826040890160208a01615d2b565b6001600160401b0316885f01357f5782657d42a82672386622ee341478dbbb9f125709127204f3f0107b5b76b5a589604051612bbe91906159b1565b60405180910390a35050505050505050565b612bd8613c7a565b5f818152600f6020526040902060028154600160f01b900460ff166006811115612c0457612c04615b6a565b14158015612c2f575060018154600160f01b900460ff166006811115612c2c57612c2c615b6a565b14155b15612c4d576040516307a92f1960e51b815260040160405180910390fd5b5f612c56613af7565b82549091506001600160a01b03808316911614801590612c86575060018201546001600160a01b03828116911614155b15612ca45760405163ea8e4eb560e01b815260040160405180910390fd5b815460ff60f01b1916600160f21b178255612cbd612dfb565b6002546001600160a01b03908116911614612db357600280546040805163c13517e160e01b8152600481019390935260248301525f60448301819052916001600160a01b039091169063c13517e190349060640160206040518083038185885af1158015612d2d573d5f803e3d5ffd5b50505050506040513d601f19601f82011682018060405250810190612d5291906165b9565b5f8181526016602052604090819020869055600254905191925082916001600160a01b03909116907f74baab670a4015ab2f1b467c5252a96141a2573f2908e58a92081e80d3cfde3d90612da9908890819061645f565b60405180910390a3505b612dbb613af7565b6001600160a01b0316837f84a477df8a28a4276ca6dee4458a06c3015f30c477d9c949ede4e13ff8a552b460405160405180910390a35050611979613caf565b5f80612e05614779565b546001600160a01b031692915050565b5f80612e1f613dc0565b5f948552602090815260408086206001600160a01b03959095168652939052505090205460ff1690565b5f612e5381613b41565b50600880546001600160a01b0319166001600160a01b0392909216919091179055565b60605f612e81613a75565b9050806001018054610e9e90616297565b612e9a61468f565b612ea2613c7a565b5f838152600f6020526040902060048154600160f01b900460ff166006811115612ece57612ece615b6a565b14612eec576040516307a92f1960e51b815260040160405180910390fd5b60018101805460ff60c01b1916600160c01b179055805460ff60f01b1916600560f01b1781556002810154612f2c9084906001600160a01b031684613de4565b5f81600401548260030154612f419190616403565b905082811115612f6d5781546002830154612f6d916001600160a01b039081169116611886868561644c565b836001600160a01b0316855f805160206170e88339815191528588604051612f9692919061645f565b60405180910390a35050611955613caf565b610f46612fb3613af7565b838361479d565b5f612fc481613b41565b50600580546001600160a01b0319166001600160a01b0392909216919091179055565b5f80516020617108833981519152612ffe81613b41565b613006613c7a565b6127108211156130295760405163162908e360e11b815260040160405180910390fd5b5f838152600f6020526040902060048154600160f01b900460ff16600681111561305557613055615b6a565b14613073576040516307a92f1960e51b815260040160405180910390fd5b5f816004015482600301546130889190616403565b90505f6127106130988684616416565b6130a2919061642d565b90505f6130af828461644c565b845460ff60f01b1916600560f01b17855560018501805460ff60c01b1916600160c01b179055905081156130fe57600184015460028501546130fe916001600160a01b03908116911684613de4565b80156131225783546002850154613122916001600160a01b03908116911683613de4565b867f8947a76ece2993f804a4819d48a3bfbf277d6549f5fad75a491ca2ffc314ab61838360405161315492919061645f565b60405180910390a250505050611955613caf565b613173848484611609565b61169c61317e613af7565b85858585614840565b61318f613c7a565b5f60145f61319b613af7565b6001600160a01b03908116825260208083019390935260409182015f9081209186168152925281205491508190036131e65760405163e49c14cb60e01b815260040160405180910390fd5b5f60145f6131f2613af7565b6001600160a01b03908116825260208083019390935260409182015f9081209187168152925290205561322d613226613af7565b8383613de4565b80826001600160a01b0316613240613af7565b6001600160a01b03167f39bed68a008a68cbf907d7ff6bc3629912af6516cb837cfa3f871ad9f2b8a94460405160405180910390a450611979613caf565b606061328982613a99565b505f828152600f602052604081206001810154600382015482549293926132d1926132cc928892600160a01b90920461ffff1691600160f81b900460ff16614954565b614a7c565b6040516020016132e19190616711565b60408051808303601f1901815291905282549091505f90600160f81b900460ff1661331a5760405180602001604052805f81525061334f565b825461332f90600160f81b900460ff16614aa2565b60405160200161333f9190616752565b6040516020818303038152906040525b90505f61335b86614aa2565b60018501548490849061337890600160a01b900461ffff16614b31565b6133858860030154614aa2565b6040516020016133999594939291906167b0565b60405160208183030381529060405290506133b381614a7c565b6040516020016133c39190616934565b604051602081830303815290604052945050505050919050565b5f805160206171488339815191526133f481613b41565b506001600160a01b03919091165f908152600b60205260409020805460ff1916911515919091179055565b613428826116a2565b61343181613b41565b61169c8383613e76565b5f61344581613b41565b50600380546001600160a01b0319166001600160a01b0392909216919091179055565b613470613c7a565b5f838152600f6020526040902060018154600160f01b900460ff16600681111561349c5761349c615b6a565b146134ba576040516307a92f1960e51b815260040160405180910390fd5b5f6134c3613af7565b60018301549091506001600160a01b038083169116146134f65760405163ea8e4eb560e01b815260040160405180910390fd5b60068201613505848683616327565b50815460ff60f01b1916600160f11b1782556040516001600160a01b0382169086907fd5d9bc882dc95f198786a74e52a0b87e49a07c80921b74821ba374339e394d3090612f969088908890616978565b61355e613c54565b613566613c7a565b5f828152600f6020526040902080546001600160a01b0316613586613af7565b6001600160a01b0316146135ad5760405163ea8e4eb560e01b815260040160405180910390fd5b6001810154600160b01b900461ffff1682106135dc576040516302e845cd60e61b815260040160405180910390fd5b5f8381526010602090815260408083208584529091529020600281015460ff161561361a576040516340dabeef60e11b815260040160405180910390fd5b60028101805460ff1916600117905580546005830180545f9061363e908490616403565b9091555050600182015460028301548254613666926001600160a01b03908116921690613de4565b82847fd33fcd27cbfb73a2d9058c968b560ccb306500bf536133802048489ecc7355e9835f015460405161190091815260200190565b6136a4613c7a565b5f818152600f60205260408120908154600160f01b900460ff1660068111156136cf576136cf615b6a565b146136ed576040516307a92f1960e51b815260040160405180910390fd5b60018101546001600160a01b03161561371957604051632c29a8ff60e21b815260040160405180910390fd5b5f613722613af7565b82549091506001600160a01b03908116908216036137535760405163ea8e4eb560e01b815260040160405180910390fd5b5f8381526013602090815260408083206001600160a01b038516845290915290205460ff16156137955760405162540c0360e11b815260040160405180910390fd5b5f6064600584600301546137a99190616416565b6137b3919061642d565b60028401549091506001600160a01b0316156137e85760028301546137e3906001600160a01b031683308461434c565b613809565b80341015613809576040516378de4a6960e11b815260040160405180910390fd5b5f848152601260209081526040808320815180830183526001600160a01b038781168083528286018881528454600180820187559589528789209451600290910290940180546001600160a01b0319169490931693909317825591519083015588855260138452828520818652845293829020805460ff191690911790555183815286917f81bbe3bd8cd7aca942797e968d27abaa8f12cfb189d8d0e56b49453fb8590c73910161211c565b60116020525f90815260409020805460018201805460ff90921692916138da90616297565b80601f016020809104026020016040519081016040528092919081815260200182805461390690616297565b80156139515780601f1061392857610100808354040283529160200191613951565b820191905f5260205f20905b81548152906001019060200180831161393457829003601f168201915b505050600290930154919250506001600160a01b031683565b5f80613974613a75565b6001600160a01b039485165f90815260059190910160209081526040808320959096168252939093525050205460ff1690565b6012602052815f5260405f2081815481106139c0575f80fd5b5f918252602090912060029091020180546001909101546001600160a01b039091169250905082565b6139f161468f565b6001600160a01b038116613a1a575f604051631e4fbdf760e01b815260040161163291906159b1565b611979816146d8565b6001600160a01b038083165f908152600c6020526040812054909116613a498382614c07565b949350505050565b5f6001600160e01b03198216637965db0b60e01b1480610e7d5750610e7d82614d77565b7f80bb2b638cc20bc4d0a60d66940f3ab4a00c1d7b313497ca82fb0b4ab007930090565b5f80613aa483614d9b565b90506001600160a01b038116610e7d57604051637e27328960e01b815260048101849052602401611632565b5f80613ada613a75565b5f938452600401602052505060409020546001600160a01b031690565b6003545f906001600160a01b031633148015613b1d57506003546001600160a01b031615155b15613b2f575060131936013560601c90565b503390565b6119558383836001614dc2565b61197981613b4d613af7565b614ec9565b5f807ff0c57e16840df040f15088dc2f81fe391c3923bec73e23a9662efc9c229c6a00610e7d565b613b82614ef4565b610f468282614f19565b612673614ef4565b613b9c614ef4565b61197981614f46565b613bad614ef4565b612673614f4e565b5f80613bbf613dc0565b9050613bcb8484612e15565b613c4b575f848152602082815260408083206001600160a01b03871684529091529020805460ff19166001179055613c01613af7565b6001600160a01b0316836001600160a01b0316857f2f8788117e7eff1d82e926ec794901d17c78024a50270940304540a733656f0d60405160405180910390a46001915050610e7d565b5f915050610e7d565b613c5c611eaa565b156126735760405163d93c066560e01b815260040160405180910390fd5b5f613c83614f56565b805490915060011901613ca957604051633ee5aeb560e01b815260040160405180910390fd5b60029055565b5f613cb8614f56565b6001905550565b5f80613cc9613a75565b90505f613cd585614d9b565b90506001600160a01b03841615613cf157613cf1818587614f7a565b6001600160a01b03811615613d2d57613d0c5f865f80614dc2565b6001600160a01b0381165f908152600383016020526040902080545f190190555b6001600160a01b03861615613d5d576001600160a01b0386165f9081526003830160205260409020805460010190555b5f85815260028301602052604080822080546001600160a01b0319166001600160a01b038a811691821790925591518893918516917fddf252ad1be2c89b69c2b068fc378daa952ba7f163c4a11628f55a4df523b3ef91a49150505b9392505050565b7f02dd7bc7dec4dceedda775e58dd541e08a116c6c53815c0bd028192f7b62680090565b6001600160a01b038216613e62575f836001600160a01b0316826040515f6040518083038185875af1925050503d805f8114613e3b576040519150601f19603f3d011682016040523d82523d5f602084013e613e40565b606091505b505090508061169c576040516312171d8360e31b815260040160405180910390fd5b6119556001600160a01b0383168483614fd0565b5f80613e80613dc0565b9050613e8c8484612e15565b15613c4b575f848152602082815260408083206001600160a01b03871684529091529020805460ff19169055613ec0613af7565b6001600160a01b0316836001600160a01b0316857ff6391f5c32d9c69d2a47ea670b442974b53935d1edc7fd64eb21e047a839171b60405160405180910390a46001915050610e7d565b613f12614ff6565b5f613f1b614328565b805460ff1916815590507f5db9ee0a495bf2e6ff9c91a7834c1ba4fdd244a5e8aa4e537bd38aeae4b073aa613f4e613af7565b604051613f5b91906159b1565b60405180910390a150565b604051636eb1769f60e11b81523060048201526001600160a01b0383811660248301525f919085169063dd62ed3e90604401602060405180830381865afa158015613fb3573d5f803e3d5ffd5b505050506040513d601f19601f82011682018060405250810190613fd791906165b9565b905061169c8484613fe88585616403565b61501b565b610f46828260405180602001604052805f8152506150ab565b5f8281527f0542a41881ee128a365a727b282c86fa859579490b9bb45aab8503648c8e79006020819052604090912061403f838261646d565b506040518381527ff8e1a15aba9398e019f0b49df1a4fde98ee17ae345cb5f6b5e2c27f5033e8ce79060200160405180910390a1505050565b6006546001600160a01b031661408b5750565b5f818152600f602052604090819020600654600182015492516340c10f1960e01b815291926001600160a01b03918216926340c10f19926140db92169068056bc75e2d6310000090600401615ce0565b5f604051808303815f87803b1580156140f2575f80fd5b505af1925050508015614103575060015b5060065481546001600160a01b03918216916340c10f199116614130600268056bc75e2d6310000061642d565b6040518363ffffffff1660e01b815260040161414d929190615ce0565b5f604051808303815f87803b158015614164575f80fd5b505af1925050508015614175575060015b15610f46575050565b306001600160a01b037f000000000000000000000000000000000000000000000000000000000000000016148061420457507f00000000000000000000000000000000000000000000000000000000000000006001600160a01b03166141f85f80516020617128833981519152546001600160a01b031690565b6001600160a01b031614155b156126735760405163703e46dd60e11b815260040160405180910390fd5b5f610f4681613b41565b816001600160a01b03166352d1902d6040518163ffffffff1660e01b8152600401602060405180830381865afa925050508015614286575060408051601f3d908101601f19168201909252614283918101906165b9565b60015b6142a55781604051634c9c8ce360e01b815260040161163291906159b1565b5f8051602061712883398151915281146142d557604051632a87526960e21b815260048101829052602401611632565b61195583836150c9565b306001600160a01b037f000000000000000000000000000000000000000000000000000000000000000016146126735760405163703e46dd60e11b815260040160405180910390fd5b7fcd5ed15c6e187e77e9aee88184c21f4f2182ab5827cb3b7e07fbedcd63f0330090565b6040516001600160a01b03848116602483015283811660448301526064820183905261169c9186918216906323b872dd906084015b604051602081830303815290604052915060e01b6020820180516001600160e01b03838183161783525050505061511e565b6001600160a01b038616158015906143dc5750866001600160a01b0316866001600160a01b0316145b156143fa57604051631b748f9960e31b815260040160405180910390fd5b60158054905f6144098361698b565b9190505550604051806101c00160405280886001600160a01b0316815260200160155463ffffffff1681526020018365ffffffffffff1681526020015f600681111561445757614457615b6a565b81525f60208083018290526001600160a01b03808b1660408086019190915261ffff87166060808701919091526080860185905260a086018590528b831660c087015260e086018b9052610100860185905261012086018590526101409095018990526015548452600f83529283902085518154938701519487015165ffffffffffff16600160c01b0265ffffffffffff60c01b1963ffffffff909616600160a01b026001600160c01b0319909516919093161792909217928316811782559284015190929091839160ff60f01b191666ffffffffffffff60c01b1990911617600160f01b83600681111561454e5761454e615b6a565b02179055506080820151815460ff909116600160f81b026001600160f81b0390911617815560a082015160018201805460c085015160e08601516101008701511515600160c01b0260ff60c01b1961ffff928316600160b01b021662ffffff60b01b1992909316600160a01b026001600160b01b03199094166001600160a01b0396871617939093171617179055610120830151600283018054919092166001600160a01b0319919091161790556101408201516003820155610160820151600482015561018082015160058201556101a08201516006820190614632908261646d565b50905050856001600160a01b0316876001600160a01b03166015547f9f708ef692516d5076ae0cb779688ef01c75caad86fb2e2fa1b80612ee7e64a4878660405161467e92919061645f565b60405180910390a450505050505050565b614697613af7565b6001600160a01b03166146a8612dfb565b6001600160a01b031614612673576146be613af7565b60405163118cdaa760e01b815260040161163291906159b1565b5f6146e1614779565b80546001600160a01b038481166001600160a01b031983168117845560405193945091169182907f8be0079c531659141344cd1fd0a4f28419497f9722a3daafe3b4186f6b6457e0905f90a3505050565b61473a613c54565b5f614743614328565b805460ff1916600117815590507f62e78cea01bee320cd4e420270b5ea74000d11b0c9f74754ebdbfc544b05a258613f4e613af7565b7f9016d09d72d40fdae2fd8ceac6b6234c7706214fd39c1cd1e609a0528c19930090565b5f6147a6613a75565b90506001600160a01b0383166147d15782604051630b61174360e31b815260040161163291906159b1565b6001600160a01b038481165f818152600584016020908152604080832094881680845294825291829020805460ff191687151590811790915591519182527f17307eab39ab6107e8899845ad3d59bd9653f200f220920489ca2b5937696c31910160405180910390a350505050565b6001600160a01b0383163b1561494d57604051630a85bd0160e11b81526001600160a01b0384169063150b7a02906148829088908890879087906004016169a3565b6020604051808303815f875af19250505080156148bc575060408051601f3d908101601f191682019092526148b9918101906169d5565b60015b61491a573d8080156148e9576040519150601f19603f3d011682016040523d82523d5f602084013e6148ee565b606091505b5080515f036149125783604051633250574960e11b815260040161163291906159b1565b805160208201fd5b6001600160e01b03198116630a85bd0160e11b14610ffd5783604051633250574960e11b815260040161163291906159b1565b5050505050565b60605f61496085614b31565b90505f61496c87614aa2565b90505f61497886614aa2565b90505f805f61498688615181565b9250925092505f83836040516020016149a09291906169f0565b60405160208183030381529060405290505f8688876040516020016149c793929190616bab565b60405160208183030381529060405290505f808b60ff16116149f75760405180602001604052805f815250614a24565b83614a018c61533e565b85604051602001614a1493929190616e07565b6040516020818303038152906040525b604051602001614a349190616ef9565b6040516020818303038152906040529050828282604051602001614a5a93929190616f22565b6040516020818303038152906040529950505050505050505050949350505050565b6060610e7d82604051806060016040528060408152602001617168604091396001615425565b60605f614aae8361559f565b60010190505f816001600160401b03811115614acc57614acc615d51565b6040519080825280601f01601f191660200182016040528015614af6576020820181803683370190505b5090508181016020015b5f19016f181899199a1a9b1b9c1cb0b131b232b360811b600a86061a8153600a8504945084614b0057509392505050565b606081600103614b6257505060408051808201909152600b81526a11195d995b1bdc1b595b9d60aa1b602082015290565b81600203614b8c5750506040805180820190915260068152652232b9b4b3b760d11b602082015290565b81600303614bb95750506040805180820190915260098152684d61726b6574696e6760b81b602082015290565b81600403614be457505060408051808201909152600781526657726974696e6760c81b602082015290565b505060408051808201909152600781526611d95b995c985b60ca1b602082015290565b5f6001600160a01b038216614c2f57604051637e68a04560e01b815260040160405180910390fd5b5f8290505f80826001600160a01b031663feaf968c6040518163ffffffff1660e01b815260040160a060405180830381865afa158015614c71573d5f803e3d5ffd5b505050506040513d601f19601f82011682018060405250810190614c959190616f7a565b509350509250505f8213614cbb5760405162bfc92160e01b815260040160405180910390fd5b612a30614cc8824261644c565b1115614ce757604051630cd5fa0760e11b815260040160405180910390fd5b5f836001600160a01b031663313ce5676040518163ffffffff1660e01b8152600401602060405180830381865afa158015614d24573d5f803e3d5ffd5b505050506040513d601f19601f82011682018060405250810190614d489190616fc6565b60ff169050614d5881600a6170c1565b614d628489616416565b614d6c919061642d565b979650505050505050565b5f6001600160e01b0319821663152a902d60e11b1480610e7d5750610e7d82615674565b5f80614da5613a75565b5f938452600201602052505060409020546001600160a01b031690565b5f614dcb613a75565b90508180614de157506001600160a01b03831615155b15614e99575f614df085613a99565b90506001600160a01b03841615801590614e1c5750836001600160a01b0316816001600160a01b031614155b8015614e2f5750614e2d818561396a565b155b15614e4f578360405163a9fbf51f60e01b815260040161163291906159b1565b8215614e975784866001600160a01b0316826001600160a01b03167f8c5be1e5ebec7d5bd14f71427d1e84f3dd0314c0f7b2291e5b200ac8c7c3b92560405160405180910390a45b505b5f93845260040160205250506040902080546001600160a01b0319166001600160a01b0392909216919091179055565b614ed38282612e15565b610f4657808260405163e2517d3f60e01b8152600401611632929190615ce0565b614efc615698565b61267357604051631afcd79f60e31b815260040160405180910390fd5b614f21614ef4565b5f614f2a613a75565b905080614f37848261646d565b506001810161169c838261646d565b6139f1614ef4565b613caf614ef4565b7f9b779b17422d0df92223018b32b4d1fa46e071723d6817e2486d003becc55f0090565b614f858383836156b1565b611955576001600160a01b038316614fb357604051637e27328960e01b815260048101829052602401611632565b818160405163177e802f60e01b8152600401611632929190615ce0565b61195583846001600160a01b031663a9059cbb8585604051602401614381929190615ce0565b614ffe611eaa565b61267357604051638dfc202b60e01b815260040160405180910390fd5b5f836001600160a01b031663095ea7b3848460405160240161503e929190615ce0565b604051602081830303815290604052915060e01b6020820180516001600160e01b03838183161783525050505090506150778482615715565b61169c576150a184856001600160a01b031663095ea7b3865f604051602401614381929190615ce0565b61169c848261511e565b6150b5838361575e565b6119556150c0613af7565b5f858585614840565b6150d2826157bf565b6040516001600160a01b038316907fbc7cd75a20ee27fd9adebab32041f755214dbc6bffa90cc0225b39da2e5c2d3b905f90a2805115615116576119558282615819565b610f4661588b565b5f8060205f8451602086015f885af18061513d576040513d5f823e3d81fd5b50505f513d91508115615154578060011415615161565b6001600160a01b0384163b155b1561169c5783604051635274afe760e01b815260040161163291906159b1565b606080606060048460ff16106151f957604051806040016040528060078152602001660234646443730360cc1b815250604051806040016040528060078152602001660234646413530360cc1b8152506040518060400160405280600481526020016311d3d31160e21b815250925092509250615337565b8360ff1660030361526e57604051806040016040528060078152602001660234330433043360cc1b815250604051806040016040528060078152602001660233830383038360cc1b8152506040518060400160405280600681526020016529a4a62b22a960d11b815250925092509250615337565b60ff8416156152e1576040518060400160405280600781526020016611a1a21ba3199960c91b815250604051806040016040528060078152602001662338423435313360c81b8152506040518060400160405280600681526020016542524f4e5a4560d01b815250925092509250615337565b604051806040016040528060078152602001662334663436653560c81b815250604051806040016040528060078152602001662339333333656160c81b81525060405180602001604052805f8152509250925092505b9193909250565b60608160ff1660050361536c575050604080518082019091526005815264151515151560d91b602082015290565b8160ff166004036153975750506040805180820190915260048152631515151560e11b602082015290565b8160ff166003036153c157505060408051808201909152600381526215151560e91b602082015290565b8160ff166002036153ea575050604080518082019091526002815261151560f11b602082015290565b8160ff166001036154125750506040805180820190915260018152601560f91b602082015290565b505060408051602081019091525f815290565b606083515f03615443575060408051602081019091525f8152613db9565b5f82615473576003855160046154599190616416565b615464906002616403565b61546e919061642d565b615498565b6003855160026154839190616403565b61548d919061642d565b615498906004616416565b90505f816001600160401b038111156154b3576154b3615d51565b6040519080825280601f01601f1916602001820160405280156154dd576020820181803683370190505b509050600185016020820187885189016020810180515f82525b82841015615552576003840193508351603f8160121c168701518653600186019550603f81600c1c168701518653600186019550603f8160061c168701518653600186019550603f81168701518653506001850194506154f7565b90525050851561559357600388510660018114615576576002811461558957615591565b603d6001830353603d6002830353615591565b603d60018303535b505b50909695505050505050565b5f8072184f03e93ff9f4daa797ed6e38ed64bf6a1f0160401b83106155dd5772184f03e93ff9f4daa797ed6e38ed64bf6a1f0160401b830492506040015b6904ee2d6d415b85acef8160201b8310615607576904ee2d6d415b85acef8160201b830492506020015b662386f26fc10000831061562557662386f26fc10000830492506010015b6305f5e100831061563d576305f5e100830492506008015b612710831061565157612710830492506004015b60648310615663576064830492506002015b600a8310610e7d5760010192915050565b5f6001600160e01b03198216632483248360e11b1480610e7d5750610e7d826158aa565b5f6156a1613b52565b54600160401b900460ff16919050565b5f6001600160a01b03831615801590613a495750826001600160a01b0316846001600160a01b031614806156ea57506156ea848461396a565b80613a495750826001600160a01b031661570383613ad0565b6001600160a01b031614949350505050565b5f805f8060205f8651602088015f8a5af192503d91505f519050828015615754575081156157465780600114615754565b5f866001600160a01b03163b115b9695505050505050565b6001600160a01b038216615787575f604051633250574960e11b815260040161163291906159b1565b5f61579383835f613cbf565b90506001600160a01b03811615611955575f6040516339e3563760e11b815260040161163291906159b1565b806001600160a01b03163b5f036157eb5780604051634c9c8ce360e01b815260040161163291906159b1565b5f8051602061712883398151915280546001600160a01b0319166001600160a01b0392909216919091179055565b60605f80846001600160a01b03168460405161583591906170cc565b5f60405180830381855af49150503d805f811461586d576040519150601f19603f3d011682016040523d82523d5f602084013e615872565b606091505b50915091506158828583836158f9565b95945050505050565b34156126735760405163b398979f60e01b815260040160405180910390fd5b5f6001600160e01b031982166380ac58cd60e01b14806158da57506001600160e01b03198216635b5e139f60e01b145b80610e7d57506301ffc9a760e01b6001600160e01b0319831614610e7d565b60608261590e576159098261594c565b613db9565b815115801561592557506001600160a01b0384163b155b156159455783604051639996b31560e01b815260040161163291906159b1565b5080613db9565b80511561595b57805160208201fd5b60405163d6bda27560e01b815260040160405180910390fd5b6001600160e01b031981168114611979575f80fd5b5f60208284031215615999575f80fd5b8135613db981615974565b6001600160a01b03169052565b6001600160a01b0391909116815260200190565b5f5b838110156159df5781810151838201526020016159c7565b50505f910152565b5f81518084526159fe8160208601602086016159c5565b601f01601f19169290920160200192915050565b602081525f613db960208301846159e7565b5f60208284031215615a34575f80fd5b5035919050565b6001600160a01b0381168114611979575f80fd5b5f8060408385031215615a60575f80fd5b8235615a6b81615a3b565b946020939093013593505050565b5f8083601f840112615a89575f80fd5b5081356001600160401b03811115615a9f575f80fd5b60208301915083602082850101111561177e575f80fd5b5f805f60408486031215615ac8575f80fd5b8335925060208401356001600160401b03811115615ae4575f80fd5b615af086828701615a79565b9497909650939450505050565b5f805f805f60a08688031215615b11575f80fd5b8535615b1c81615a3b565b94506020860135615b2c81615a3b565b93506040860135615b3c81615a3b565b92506060860135615b4c81615a3b565b91506080860135615b5c81615a3b565b809150509295509295909350565b634e487b7160e01b5f52602160045260245ffd5b60078110615b9a57634e487b7160e01b5f52602160045260245ffd5b9052565b6001600160a01b038f16815263ffffffff8e16602082015265ffffffffffff8d166040820152615bd1606082018d615b7e565b60ff8b166080820152615be760a082018b6159a4565b61ffff891660c082015261ffff881660e0820152861515610100820152615c126101208201876159a4565b8461014082015283610160820152826101808201526101c06101a08201525f615c3f6101c08301846159e7565b90509f9e505050505050505050505050505050565b5f8060408385031215615c65575f80fd5b823591506020830135615c7781615a3b565b809150509250929050565b5f805f60608486031215615c94575f80fd5b8335615c9f81615a3b565b92506020840135615caf81615a3b565b929592945050506040919091013590565b5f8060408385031215615cd1575f80fd5b50508035926020909101359150565b6001600160a01b03929092168252602082015260400190565b803563ffffffff81168114615d0c575f80fd5b919050565b5f8060408385031215615d22575f80fd5b615a6b83615cf9565b5f60208284031215615d3b575f80fd5b81356001600160401b0381168114613db9575f80fd5b634e487b7160e01b5f52604160045260245ffd5b604051601f8201601f191681016001600160401b0381118282101715615d8d57615d8d615d51565b604052919050565b5f82601f830112615da4575f80fd5b81356001600160401b03811115615dbd57615dbd615d51565b615dd0601f8201601f1916602001615d65565b818152846020838601011115615de4575f80fd5b816020850160208301375f918101602001919091529392505050565b5f8060408385031215615e11575f80fd5b8235615e1c81615a3b565b915060208301356001600160401b03811115615e36575f80fd5b615e4285828601615d95565b9150509250929050565b5f805f805f8060c08789031215615e61575f80fd5b8635615e6c81615a3b565b95506020870135615e7c81615a3b565b94506040870135935060608701356001600160401b03811115615e9d575f80fd5b615ea989828a01615d95565b9350506080870135915060a087013590509295509295509295565b5f60208284031215615ed4575f80fd5b8135613db981615a3b565b5f6001600160401b03821115615ef757615ef7615d51565b5060051b60200190565b5f82601f830112615f10575f80fd5b81356020615f25615f2083615edf565b615d65565b8083825260208201915060208460051b870101935086841115615f46575f80fd5b602086015b84811015615f625780358352918301918301615f4b565b509695505050505050565b5f82601f830112615f7c575f80fd5b81356020615f8c615f2083615edf565b82815260059290921b84018101918181019086841115615faa575f80fd5b8286015b84811015615f625780356001600160401b03811115615fcb575f80fd5b615fd98986838b0101615d95565b845250918301918301615fae565b5f805f805f805f60e0888a031215615ffd575f80fd5b873561600881615a3b565b9650602088013561601881615a3b565b95506040880135945060608801356001600160401b038082111561603a575f80fd5b6160468b838c01615d95565b955060808a013591508082111561605b575f80fd5b6160678b838c01615f01565b945060a08a013591508082111561607c575f80fd5b506160898a828b01615f6d565b92505060c0880135905092959891949750929550565b838152606060208201525f6160b760608301856159e7565b90508215156040830152949350505050565b60ff81168114611979575f80fd5b5f805f80606085870312156160ea575f80fd5b8435935060208501356160fc816160c9565b925060408501356001600160401b03811115616116575f80fd5b61612287828801615a79565b95989497509550505050565b5f806040838503121561613f575f80fd5b823561614a81615a3b565b91506020830135615c7781615a3b565b5f6020828403121561616a575f80fd5b81356001600160401b0381111561617f575f80fd5b820160a08185031215613db9575f80fd5b5f805f606084860312156161a2575f80fd5b833592506020840135615caf81615a3b565b5f80604083850312156161c5575f80fd5b82356161d081615a3b565b915060208301358015158114615c77575f80fd5b5f805f80608085870312156161f7575f80fd5b843561620281615a3b565b9350602085013561621281615a3b565b92506040850135915060608501356001600160401b03811115616233575f80fd5b61623f87828801615d95565b91505092959194509250565b5f6020828403121561625b575f80fd5b613db982615cf9565b60ff84168152606060208201525f61627f60608301856159e7565b905060018060a01b0383166040830152949350505050565b600181811c908216806162ab57607f821691505b6020821081036162c957634e487b7160e01b5f52602260045260245ffd5b50919050565b601f82111561195557805f5260205f20601f840160051c810160208510156162f45750805b601f840160051c820191505b8181101561494d575f8155600101616300565b5f19600383901b1c191660019190911b1790565b6001600160401b0383111561633e5761633e615d51565b6163528361634c8354616297565b836162cf565b5f601f84116001811461637e575f851561636c5750838201355b6163768682616313565b84555061494d565b5f83815260208120601f198716915b828110156163ad578685013582556020948501946001909201910161638d565b50868210156163c9575f1960f88860031b161c19848701351681555b505060018560011b0183555050505050565b634e487b7160e01b5f52603260045260245ffd5b634e487b7160e01b5f52601160045260245ffd5b80820180821115610e7d57610e7d6163ef565b8082028115828204841417610e7d57610e7d6163ef565b5f8261644757634e487b7160e01b5f52601260045260245ffd5b500490565b81810381811115610e7d57610e7d6163ef565b918252602082015260400190565b81516001600160401b0381111561648657616486615d51565b61649a816164948454616297565b846162cf565b602080601f8311600181146164c8575f84156164b65750858301515b6164c08582616313565b865550610ffd565b5f85815260208120601f198616915b828110156164f6578886015182559484019460019091019084016164d7565b508582101561651357878501515f19600388901b60f8161c191681555b5050505050600190811b01905550565b604080825283519082018190525f906020906060840190828701845b8281101561655b5781518452928401929084019060010161653f565b50505083810382850152845180825282820190600581901b830184018785015f5b838110156165aa57601f198684030185526165988383516159e7565b9487019492509086019060010161657c565b50909998505050505050505050565b5f602082840312156165c9575f80fd5b5051919050565b81835281816020850137505f828201602090810191909152601f909101601f19169091010190565b60ff84168152604060208201525f6158826040830184866165d0565b5f808335601e19843603018112616629575f80fd5b8301803591506001600160401b03821115616642575f80fd5b60200191503681900382131561177e575f80fd5b5f805f8060808587031215616669575f80fd5b843561667481615a3b565b935060208501356001600160401b0381111561668e575f80fd5b61669a87828801615d95565b949794965050505060408301359260600135919050565b5f808335601e198436030181126166c6575f80fd5b8301803591506001600160401b038211156166df575f80fd5b6020019150600681901b360382131561177e575f80fd5b5f81516167078185602086016159c5565b9290920192915050565b7919185d184e9a5b5859d94bdcdd99cade1b5b0ed8985cd94d8d0b60321b81525f825161674581601a8501602087016159c5565b91909101601a0192915050565b7f7b2274726169745f74797065223a2022526174696e67222c202276616c7565228152621d101160e91b60208201525f82516167958160238501602087016159c5565b630113e96160e51b6023939091019283015250602701919050565b787b226e616d65223a2022506f6c794c616e6365204a6f62202360381b815285515f906167e4816019850160208b016159c5565b7f222c20226465736372697074696f6e223a202250726f6f66206f6620576f726b6019918401918201527f20666f7220506f6c794c616e6365204d61726b6574706c616365222c2022696d60398201526630b3b2911d101160c91b60598201528651616857816060840160208b016159c5565b71222c202261747472696275746573223a205b60701b60609290910191820152855161688a816072840160208a016159c5565b7f7b2274726169745f74797065223a202243617465676f7279222c202276616c75607292909101918201526432911d101160d91b60928201526169286169186169126168d960978501896166f6565b7f227d2c207b2274726169745f74797065223a2022427564676574222c20227661815266363ab2911d101160c91b602082015260270190565b866166f6565b63227d5d7d60e01b815260040190565b98975050505050505050565b7f646174613a6170706c69636174696f6e2f6a736f6e3b6261736536342c00000081525f825161696b81601d8501602087016159c5565b91909101601d0192915050565b602081525f613a496020830184866165d0565b5f6001820161699c5761699c6163ef565b5060010190565b6001600160a01b03858116825284166020820152604081018390526080606082018190525f90615754908301846159e7565b5f602082840312156169e5575f80fd5b8151613db981615974565b7f3c73766720786d6c6e733d22687474703a2f2f7777772e77332e6f72672f323081527f30302f737667222077696474683d2234303022206865696768743d2234303022602082015276103b34b2bba137bc1e91181018101a1818101a1818111f60491b60408201527f3c726563742077696474683d223130302522206865696768743d223130302522605782015270103334b6361e911198b098b1993191179f60791b60778201527f3c646566733e3c6c696e6561724772616469656e742069643d2267726164222060888201527f78313d223025222079313d223025222078323d2231303025222079323d22313060a8820152631812911f60e11b60c88201527f3c73746f70206f66667365743d22302522207374796c653d2273746f702d636f60cc820152633637b91d60e11b60ec8201525f613a49616b87616b40616912616b4f8260f088018a6166f6565b6211179f60e91b815260030190565b7f3c73746f70206f66667365743d223130302522207374796c653d2273746f702d81526531b7b637b91d60d11b602082015260260190565b771e17b634b732b0b923b930b234b2b73a1f1e17b232b3399f60411b815260180190565b7f3c636972636c652063783d22323030222063793d223230302220723d2231353081527f222066696c6c3d2275726c2823677261642922206f7061636974793d22302e3960208201526211179f60e91b60408201527f3c7465787420783d223530252220793d223330252220746578742d616e63686f60438201525f805160206171c8833981519152606382018190527f696c793d22417269616c2220666f6e742d73697a653d2232342220666f6e742d60838301527f7765696768743d22626f6c64223e504f4c594c414e434520574f524b3c2f746560a3830152623c3a1f60e91b60c38301527f3c7465787420783d223530252220793d223435252220746578742d616e63686f60c683015260e68201527f696c793d22417269616c2220666f6e742d73697a653d223138223e4a6f6220236101068201525f615882616d05616e01616d9382616d8d616d18826101268a018d6166f6565b661e17ba32bc3a1f60c91b815260070190565b7f3c7465787420783d223530252220793d223535252220746578742d616e63686f81527f723d226d6964646c65222066696c6c3d22236662626632342220666f6e742d6660208201527f616d696c793d22417269616c2220666f6e742d73697a653d223230223e0000006040820152605d0190565b896166f6565b7f3c7465787420783d223530252220793d223635252220746578742d616e63686f81525f805160206171c883398151915260208201527f696c793d22417269616c2220666f6e742d73697a653d223136223e427564676560408201526203a1d160ed1b606082015260630190565b856166f6565b7f3c7465787420783d223530252220793d223830252220746578742d616e63686f815270391e9136b4b232363291103334b6361e9160791b60208201525f8451616e588160318501602089016159c5565b7f2220666f6e742d66616d696c793d22417269616c2220666f6e742d73697a653d6031918401918201527711191911103337b73a16bbb2b4b3b43a1e913137b632111f60411b60518201528451616eb68160698401602089016159c5565b600160fd1b606992909101918201528351616ed881606a8401602088016159c5565b661e17ba32bc3a1f60c91b606a929091019182015260710195945050505050565b5f8251616f0a8184602087016159c5565b651e17b9bb339f60d11b920191825250600601919050565b5f8451616f338184602089016159c5565b845190830190616f478183602089016159c5565b8451910190616f5a8183602088016159c5565b0195945050505050565b80516001600160501b0381168114615d0c575f80fd5b5f805f805f60a08688031215616f8e575f80fd5b616f9786616f64565b9450602086015193506040860151925060608601519150616fba60808701616f64565b90509295509295909350565b5f60208284031215616fd6575f80fd5b8151613db9816160c9565b600181815b8085111561701b57815f1904821115617001576170016163ef565b8085161561700e57918102915b93841c9390800290616fe6565b509250929050565b5f8261703157506001610e7d565b8161703d57505f610e7d565b8160018114617053576002811461705d57617079565b6001915050610e7d565b60ff84111561706e5761706e6163ef565b50506001821b610e7d565b5060208310610133831016604e8410600b841016171561709c575081810a610e7d565b6170a68383616fe1565b805f19048211156170b9576170b96163ef565b029392505050565b5f613db98383617023565b5f82516170dd8184602087016159c5565b919091019291505056fe93e901cc5aea20ea9655887d9290a3215a5b3999c024812f4e4b749f7534349c16ceee8289685dd2a02b9c8ae81d2df373176ce53519e6284e2a2950d6546ffa360894a13ba1a3210667c828492db98dca3e2076cc3735a920a3ca505d382bbc241ecf16d79d0f8dbfb92cbc07fe17840425976cf0667f022fe9877caa831b084142434445464748494a4b4c4d4e4f505152535455565758595a6162636465666768696a6b6c6d6e6f707172737475767778797a303132333435363738392b2f3dd4928560f1aee6156570e82745e8f638e22a59b215d3cd549c53a32708b0e6723d226d6964646c65222066696c6c3d2277686974652220666f6e742d66616da264697066735822122002698ca94b2eb2bf2e219f5ae29431490a39f065bfb5bba835e25e78ef44368864736f6c63430008180033",
  "linkReferences": {},
  "deployedLinkReferences": {}
}